:020000040800F2
:1000000098080020A10100087D1A00081B130008B1
:10001000791A0008090F00081525000800000000E3
:100020000000000000000000000000006321000844
:100030005911000800000000D11B000875220008BB
:10004000BB010008BB010008BB010008BB010008A0
:10005000BB010008BB010008BB010008BB01000890
:10006000BB010008BB010008BB010008BB01000880
:10007000BB010008BB010008BB010008BB01000870
:10008000BB010008BB010008BB010008BB01000860
:10009000BB010008BB010008BB010008BB01000850
:1000A000BB010008BB010008BB010008BB01000840
:1000B000BB010008D9220008BB010008BB010008F1
:1000C000BB010008BB010008BB010008BB01000820
:1000D000BB010008BB010008BB010008BB01000810
:1000E000BB010008BB010008BB01000800F002F8DA
:1000F00000F047F80AA090E8000C82448344AAF17B
:100100000107DA4501D100F03CF8AFF2090EBAE878
:100110000F0013F0010F18BFFB1A43F0010318473B
:100120005873010078730100103A24BF78C878C171
:10013000FAD8520724BF30C830C144BF04680C60ED
:10014000704700000023002400250026103A28BF35
:1001500078C1FBD8520728BF30C148BF0B60704739
:10016000782900F07D80002070471FB59DE80300CE
:1001700000F04EFC00F02EF91FBD10B500F093F911
:1001800010BD00F0FBF91146FFF7EFFF02F024FA73
:1001900000F0EAFB03B4FFF7F0FF03BC00F0CAFD78
:1001A0000948804709480047FEE7FEE7FEE7FEE70B
:1001B000FEE7FEE7FEE7FEE7FEE7FEE70448054947
:1001C000054A064B7047000079220008ED00000840
:1001D000980200209808002098040020980400202D
:1001E0000FB4044910B503AA029800F0C1F810BC7E
:1001F0005DF814FB8C0100202DE9F0410E46044609
:10020000002020622046E168884730B3252805D0C9
:10021000D4E901219047206A401CF2E7E1682046BA
:1002200000278847050018D0A5F14100192802D8F9
:1002300020354FF400673246294620462760FFF7F5
:100240008FFF40B1012804D0F61D26F007060836BE
:10025000D8E7361DD6E72846DAE7206ABDE8F08100
:1002600070B504460D4621461068AFF30080218822
:10027000090502D50F4A7A4402E00E4A7A440E324A
:10028000002104F1240305E000F00F060009965D4B
:100290005E54491C0028F7D120780023000704D5BC
:1002A000702D02D009B1022311322046BDE8704002
:1002B00000F005B8C87101007047704770472DE91C
:1002C000F0470D4699469246044600F1240801681D
:1002D000880604D5E06921F01001216000E00120CA
:1002E000A84201DD471B00E00027A1697A1902EB53
:1002F0000900081AA0612078C00602D42046AFF396
:100300000080002608E0D4E901211AF80600904791
:10031000206A401C761C20624E45F4DB2078C00623
:100320000AD52046AFF3008006E0D4E90121302051
:100330009047206A401C2062381EA7F10107F4DCB8
:1003400007E0D4E9012118F805009047206A401C15
:100350002062281EA5F10105F3DC2046AFF30080E2
:100360002078000602D50220BDE8F0870120FBE7D7
:10037000074B70B50D467B4400F015F8044628463F
:1003800000F024F810B14FF0FF3070BD204670BD72
:1003900043220000004870473402002001694A1CD3
:1003A00002610878704700B58FB0CDE901310021B6
:1003B000059105497944CDE9031011466846FFF7D8
:1003C0001BFF0FB000BD0000E5FFFFFF007B00F04A
:1003D0008000704710B54248542100F0D5FA4148DA
:1003E000542100F0D1FA4048542100F0CDFA3F49A1
:1003F0003B483C4A3F4B08603D490A603A49196016
:10040000531C0365481C1065012008653B48344AAD
:1004100039A1784400F00CFA20B9384878440A38F9
:1004200000F0ABFA37482F4A35A1784400F000FAC3
:1004300020B9344878440A3800F09FFA32482A4AF2
:100440002FA1784400F0F4F920B92F4878440A38F5
:1004500000F093FA40232248DC000021224600F0FD
:10046000C4F920B125487844543800F086FA1D4874
:1004700022464023002100F0B8F920B121487844F9
:10048000543800F07AFA184822461023002100F070
:10049000ACF9002806D01C487844BDE81040563816
:1004A00000F06BBA10BD104870B5006D20F001046B
:1004B0000B4800F033FA0B4800F030FA0A4800F01D
:1004C0002DFA09E0206D20F00105204600F026FA03
:1004D000204600F078F82C46002CF3D170BD0000C7
:1004E000380100208C010020E001002034000020B1
:1004F000380000203C000020720000005470010011
:1005000077000000407001002C7001000EB5CDE9AD
:10051000000100F0EFFB029069460120ABBE0EBD6A
:1005200008B5694600900220ABBE08BD1FB58DE836
:10053000070069460520ABBE04B010BD1FB58DE8AD
:100540000F0069460620ABBEF6E708B56946009085
:100550000920ABBE08BD1CB5CDE9000169460A20E3
:10056000ABBE1CBD704708B5694600900C20ABBE01
:1005700008BD000000487047340200207546FFF7B0
:10058000F9FFAE4605006946534620F00700854650
:1005900018B020B5FFF712FEBDE820404FF000066E
:1005A0004FF000074FF000084FF0000B21F007015B
:1005B000AC46ACE8C009ACE8C009ACE8C009ACE89E
:1005C000C0098D46704770B50446051F00F004FA57
:1005D0000068002C14BF446870BD002C18BFAC42EA
:1005E0003CBF20466468F8D301680A18AA4218BFC5
:1005F000456003D12A680546114401602868411905
:10060000A1421CBF6C6070BD6168696021680844CC
:10061000286070BD2DE9F04705460C46C86820F4F7
:10062000201040F48000C860800602D5084600F023
:1006300020FBE06841F282014FF0FF3901400229BE
:1006400003D0204600F0BEFAB5E000F42041B1F539
:10065000004F0FD1C00306D56168E06A884200D818
:100660000846606006E02069E06260606069FFF74C
:100670007AFFA061A0680022EEB200280DDAE168DE
:100680008B050AD4C043A06041F490302260E06042
:100690006068411C61600670A5E0E06890462260D9
:1006A00040F40050E060206968BB6069FFF74DFFCF
:1006B000012704F12405A0B1A08910F4407F08D0DF
:1006C000E06900F0D4F9206118B1E06840F40060FE
:1006D00016E0E7612561E06820F4407040F4806036
:1006E0000EE0E06900F0C3F900282061F1D0E06875
:1006F00040F4006010F4407FE06002D140F480706C
:10070000E06020696060E06825696FF0010AC1055A
:100710001FD56168E06A884200D80846411B04D0B2
:100720002246284600F058FAF0BBE068010203D5E3
:10073000E562C4E9015854E0691CE1626160E16965
:1007400040F48030491EC4E9021030462E70BDE8E6
:10075000F087010202D500F480320AE06068411C93
:1007600061600670E0680A2E40F48030E06006D0D8
:100770000022E16A6068814203D90B4602E001224F
:10078000F7E70346A7895B1B7F0503D4E7699F4210
:1007900000DDE2B1814200D80146E5620F1AC4E9EA
:1007A0000158002B09DD00E005E0224619462846E5
:1007B00000F012FA08B14846C9E747B1A069E562FE
:1007C0006560C01BA061E06840F01000E060E06878
:1007D000000208D56168A069E562491B08446560AC
:1007E000A0615046B3E73046B1E770B5C468A507CD
:1007F00013D0650211D4B2F5807F09D0B2F5007F25
:1008000006D0B2F5806F08D1012300F1240106E083
:100810005D1E6FF07F46B54201D3012070BD0161BE
:10082000C361416024F470611143C160002070BD58
:100830002DE9F0410C4607461646104600F06EF8CA
:100840002078611C61280AD0722802D077283CD118
:1008500002E00125002405E00225042402E008242A
:1008600048F2020511F8010B2B2806D0622809D0A6
:1008700011F8010C74280AD00BE045F0030544F090
:100880000204EFE745F0040544F00104EAE744F010
:10089000100438462146FFF739FE411C15D00021CF
:1008A000316171604FF40071F560F1617061200792
:1008B00004D530460222002100F008F9306D40F0E6
:1008C000010030653046BDE8F0810020FBE72DE9EE
:1008D000F0410D460646104C206DC10704D041087A
:1008E00004D020F00104F7E722460EE0542000F087
:1008F000BEF807000ED0206D47F0010108435421D7
:100900002065384600F040F83A4629463046BDE8B2
:10091000F0418DE70020D6E7380100202DE9F047AF
:1009200004464FF000094FF0FF37C568D4E904864C
:10093000A80707D0204600F079F93046FFF7F0FD10
:10094000002802DA3846BDE8F087280502D540467F
:10095000FFF739FE4C21204600F016F8206D20F0FC
:10096000010020654846EEE710B50446AFF300806D
:100970002046BDE81040FFF70DBC10B500F0A0F90F
:10098000BDE8104000F096B94FF0000200B51346E4
:1009900094469646203922BFA0E80C50A0E80C509F
:1009A000B1F12001BFF4F7AF090728BFA0E80C5050
:1009B00048BF0CC05DF804EB890028BF40F8042B49
:1009C00008BF704748BF20F8022B11F0804F18BFB6
:1009D00000F8012B70477047004870473C02002028
:1009E000704770477047704738B504460A46002084
:1009F0006946AFF30080002808BF38BD0246009961
:100A0000204600F0A4F9012038BD012000F0F3B920
:100A1000F8B5AFF30080054600200C46102000BF5B
:100A20000646A819A0420DD9324669460020AFF308
:100A30000080070008BF00F0DEF90098A04218BF50
:100A40000546C419FFF7C8FF05600746F01D20F0F2
:100A500007004619284600F073F9B44208BFF8BDF4
:100A6000A21B31463868BDE8F84000F070B970B597
:100A70000646FFF7B1FF056806F10B0020F00704FA
:100A8000B4429CBF002070BD2B466A68BAB11068A2
:100A9000A04210D304F1080188423CBF506858605E
:100AA00007D35168101941601168091B0160586033
:100AB0001460101D70BD13465268002AE7D121460C
:100AC0002846FFF791FF0028DED170BD2DE9F041E7
:100AD000044616460D464769007B80072ED03846EF
:100AE000FFF733FD50BB3EB3012E02D0022E25D1BD
:100AF00004E0204600F045F905441DE03846FFF7C4
:100B000032FDE168002841F01001E16005DA20467D
:100B100000F058F80120BDE8F081C9030BD56268E8
:100B2000E16A914200D81146A26911442269891AEA
:100B3000814200DD08460544002D01DA0220EAE783
:100B4000E16A6068E268814206D29103E06203D5FF
:100B500022F4003141F01002A6690027AE4213DCF6
:100B6000E16A814201D90B4600E0034603EB060C23
:100B70002369ACEB030CAC4506DD814201D98C4600
:100B800000E084469C4505D1A760276042F0200024
:100B9000A5620DE0AD1BE669AE1B8142A66000D9DF
:100BA0000846C01A281A20605819606022F02000F8
:100BB00003490840E060002084F84870ABE700007B
:100BC000BFCFD7FFC16821F4001141F08001C1609F
:100BD00000218160016070472DE9F047814614468D
:100BE0000E464FF0FF383248D5685769054209D0A4
:100BF0003846A169FFF7AFFC002811DB2C48C04341
:100C00000540E5602B46324649463846FFF78EFCE4
:100C1000A16920F00042B21A11440028A16103D05A
:100C20002046FFF7CFFF4046BDE8F08770B5044689
:100C30000569C06A6168884200D80846E16821F405
:100C40002011E160C90312D5A84208D02246411BF9
:100C50002846FFF7C1FF10B14FF0FF3070BD0020F4
:100C6000E562C4E90150E06820F48030E0600020D3
:100C700070BD10B50446C06820F02000E060A16A95
:100C8000A06988420DD02046FFF7D0FFE06820F42D
:100C9000405040F01000E060A06AA0612069E0626E
:100CA000606044F24001E0688843E06010BD0000ED
:100CB00010000200002801D000F03CB8704700008E
:100CC00010B5014602A000F07DF8012010BD000023
:100CD00053494752545245443A20526564697265FB
:100CE00063743A2063616E2774206F70656E3A20DA
:100CF0000000000010B5431C02E010F8011B71B1A8
:100D00008107FAD14FF0013202C88C1A8C4314EAE1
:100D1000C211F9D0C01A0A0603D0C01E10BDC01AF5
:100D200010BD0A0401D0801E10BD0902FCD0401E77
:100D300010BD000001491820ABBEFEE726000200EE
:100D400000210160C0E90110704710207047034680
:100D500040688C46002818BF88423CBF0346406864
:100D6000F8D318681844884207D00CF1030020F02B
:100D70000700001D411A521A0146081D0A60FFF7BC
:100D800022BC10B50146C268900703D0900607D573
:100D9000886A0AE0FFF7FEFA01210160881E10BD93
:100DA0008B69486818440B69C01A91F848301BB128
:100DB00091F84910401A10BD1103FCD50028FADD46
:100DC000401E10BD70B505460C460A2000E06D1CA3
:100DD00000F018F835B128780028F8D102E0641C3A
:100DE00000F010F814B120780028F8D1BDE8704068
:100DF0000A2000F007B810B500F00CF8BDE810406C
:100E0000FFF758BF08B569468DF800000320ABBE58
:100E100008BD000010B5012805D0002103A0FFF790
:100E2000D1FF012010BD09A1F8E700005349475246
:100E3000544D454D3A204F7574206F6620686561AA
:100E400070206D656D6F7279000000003A20486572
:100E50006170206D656D6F727920636F727275704D
:100E60007465640021B1826842F00102826003E08F
:100E7000826822F0010282607047014600208A6881
:100E800002F004020AB1012000E000207047014690
:100E900000208A6802F008020AB1012000E0002068
:100EA0007047000030B502460020002350680F4C08
:100EB00020400D790C6844EA052420435060906876
:100EC0000B4C2040D1E902542C434D7944EA4504AF
:100ED00020439060D06A20F470000C7C641EE4B261
:100EE000234340EA0350D06230BD0000FFFEF0FF14
:100EF000FDF7F1FF816841F008018160704781686A
:100F000041F004018160704700BFFEE700F08051AE
:100F100011B10349086001E00249486070470000D0
:100F2000040402400000024021B1026842F00102C4
:100F3000026004E002684FF6FE731A4002607047D8
:100F400001684FF6FE7211400160002101604160AE
:100F50008160C1604B49884208D14A4908394968D3
:100F600041F00F01474A083A51608AE0454914317F
:100F7000884208D143490839496841F0F001414AA3
:100F8000083A51607DE03F492831884208D13D4907
:100F90000839496841F470613A4A083A516070E092
:100FA00038493C31884208D136490839496841F40A
:100FB0007041344A083A516063E032495031884206
:100FC00008D130490839496841F470212D4A083A5E
:100FD000516056E02B496431884208D129490839CB
:100FE000496841F47001274A083A516049E02549AF
:100FF0007831884208D123490839496841F0706145
:10100000204A083A51603CE01F49884206D1011F3E
:10101000096841F00F01021F116032E01A491431D2
:10102000884208D11849091F096841F0F001164AA1
:10103000121F116025E014492831884208D1124955
:10104000091F096841F470610F4A121F116018E00E
:101050000D493C31884208D10B49091F096841F408
:101060007041094A121F11600BE007495031884254
:1010700007D10549091F096841F47021024A121F6E
:101080001160704708000240080402400146002039
:10109000002201F0805313B1054B1A6801E0054BA3
:1010A0001A6802EA01030BB1012000E0002070473A
:1010B000000402400000024010B50022026847F61A
:1010C000F0739A430C6A8B6823430C6923434C6981
:1010D00023438C692343CC6923434C6A23438C6AA2
:1010E00023431A430260CB6843600B6883604B68FC
:1010F000C36010BD00B58BB00121084600F076FD3D
:101100001148FFF71DFF1148009011480190002081
:10111000029014200390002004908020059040004D
:10112000069080000790202008900002099000207F
:101130000A9069460448FFF7BFFF01210248FFF704
:10114000F3FE0BB000BD0000080002404C2401403B
:10115000A40000204160704770472DE9F04102462D
:1011600000250026002000230024002791F803C05A
:101170000CF00F0591F803C00CF0100CBCF1000F3F
:1011800003D091F802C04CEA050591F800C0BCF10B
:10119000000F31D0146800202BE04FF0010C0CFA46
:1011A00000F3B1F800C00CEA03069E4220D1830090
:1011B0004FF00F0C0CFA03F7BC4305FA03FC4CEAA2
:1011C000040491F803C0BCF1280F06D14FF0010CC4
:1011D0000CFA00FCC2F814C00AE091F803C0BCF19C
:1011E000480F05D14FF0010C0CFA00FCC2F810C0FA
:1011F000401C0828D1D31460B1F800C0BCF1FF0F27
:1012000034DD546800202EE000F1080C4FF0010896
:1012100008FA0CF3B1F800C00CEA03069E4221D193
:1012200083004FF00F0C0CFA03F7BC4305FA03FCE4
:101230004CEA040491F803C0BCF1280F05D100F179
:10124000080C08FA0CF8C2F8148091F803C0BCF13D
:10125000480F07D100F1080C4FF0010808FA0CF80C
:10126000C2F81080401C0828CED35460BDE8F0813D
:10127000F0B50A46002300240021002500F00046B6
:10128000B6F1004F02D11D4EF16901E01B4E7168AD
:10129000C0F3034583B200F44016B6F5401F08D1F1
:1012A00021F07061154E766826F07066134F7E60EF
:1012B00012E000F48016B6F5801F06D1032606FA68
:1012C00005F4A14341F0706106E0460D360103FAD2
:1012D00006F6B14341F0706122B1460D360103FAC2
:1012E00006F6314300F00046B6F1004F02D1034E3E
:1012F000F16101E0014E7160F0BD000000000140AD
:101300000246002093680B400BB1012000E0002052
:101310007047416170470161704700BFFEE7000000
:1013200008B50121084600F081FC01211848FFF7AB
:101330009FFF01211C2000F079FC0120ADF8000086
:1013400028208DF8030069461248FFF706FF4FF486
:101350001940ADF8000048208DF8030069460D489B
:10136000FFF7FBFEC820ADF8000048208DF8030011
:1013700069460948FFF7F1FE4FF44040ADF8000020
:1013800048208DF8030069460448FFF7E6FE08BDD3
:101390000002300000080140000C01400010014034
:1013A0002DE9F04107460C4615461E462A2000F05E
:1013B00083FA384600F070FA284600F06DFA2B20C8
:1013C00000F07AFA04F1140188B200F065FA06F12F
:1013D000140188B200F060FA2C2000F06DFABDE82C
:1013E000F0812DE9F04104460D461646ABB2A2B29B
:1013F000A9B2A0B2FFF7D4FF304600F04DFABDE825
:10140000F08100002DE9F84F0746884614461D4636
:10141000DDF828904FF0010ACDF80090E01BA5EB15
:10142000080100FB01F6681E83B2601E82B24146CD
:101430003846FFF7B5FF10212748FFF76AFF274816
:10144000008840F40060254908800121234800F00D
:10145000E7FD26E04FF6FE70864202D9361A834633
:1014600002E04FF0000AB3461FFA8BF36A461B49AD
:101470000C311B4800F0BCFA01220221174800F091
:10148000DBFD174800F0E4FA09E04FF40070FFF7C5
:10149000FDFD20B14FF40070FFF738FD00E0F4E7E8
:1014A00000BFBAF1000FD5D110210B48FFF733FF71
:1014B0000A480088C043094908800846008840F46B
:1014C0000060088008460088C04308800121034866
:1014D00000F0A6FDBDE8F88F000801400030014093
:1014E0003000024010B500F00DFB01215F48FFF70E
:1014F00010FF642001F038F801215C48FFF70BFF72
:10150000642001F031F8112000F0D6F9782001F0C4
:101510002BF8362000F0D0F9C02000F0C6F93A20B0
:1015200000F0CAF9052000F0C0F9B22000F0C4F9BB
:101530000C2000F0BAF90C2000F0B7F9002000F000
:10154000B4F9332000F0B1F9332000F0AEF9B72040
:1015500000F0B2F9352000F0A8F9BB2000F0ACF99A
:10156000322000F0A2F9C22000F0A6F9012000F01C
:101570009CF9C32000F0A0F9152000F096F9C420D2
:1015800000F09AF9202000F090F9C62000F094F9BC
:101590000F2000F08AF9D02000F08EF9A42000F08E
:1015A00084F9A12000F081F9E02000F085F9D02035
:1015B00000F07BF9082000F078F90E2000F075F9B2
:1015C000092000F072F9092000F06FF9052000F001
:1015D0006CF9312000F069F9332000F066F94820F9
:1015E00000F063F9172000F060F9142000F05DF9B5
:1015F000152000F05AF9312000F057F9342000F09E
:1016000054F9E12000F058F9D02000F04EF90820FC
:1016100000F04BF90E2000F048F9092000F045F9E0
:10162000092000F042F9152000F03FF9312000F0C8
:101630003CF9332000F039F9482000F036F9172042
:1016400000F033F9142000F030F9152000F02DF9E6
:10165000312000F02AF9342000F027F9212000F091
:101660002BF9292000F028F910BD0000000C0140E2
:101670002DE9FF5F0746894690469B460F9D002057
:1016800002900097284605EBD071C1F3470420462D
:10169000E21704EB5272D2102146E31704EB5373A6
:1016A000DB10A4EBC3030BB1012300E000231A44B9
:1016B0006A4392B20192A8F1200000F0FF0809EB02
:1016C0000500401E83B23819401E82B24946384692
:1016D000FFF766FE002666E00C2D07D108EB4800F8
:1016E000334901EB8000805D03901BE0102D05D194
:1016F000304800EB0810805D039013E0182D07D1EF
:1017000008EB48002C4901EB0010805D039009E0D4
:10171000202D05D1294800EB8810805D039001E061
:10172000BDE8FF9F4FF0000A37E01098C8B90120CC
:1017300000FA0AF00399084018B1584600F0ACF8D6
:1017400002E00E9800F0A8F80298401CC0B2029087
:10175000029890FBF4F104FB1100D0B90020029034
:101760001EE0012000FA0AF00399084028B15A4609
:101770000FFA89F138B2FFF734FE781C87B200986F
:10178000381AA04205D1009F09F101001FFA80F923
:1017900006E00AF1010000F0FF0ABAF1080FC4DB0D
:1017A00000BF701C86B20198864295DB00BFB7E788
:1017B0009C2F000810340008003A0008D04B0008A5
:1017C0002DE9FF4F85B0074691461D46DDE913A67A
:1017D00000200490304606EBD071C1F3470B002483
:1017E00034E0281B401EC1B20A2000F073FFB9FB91
:1017F000F0F00A21B0FBF1F201FB12080498A0B945
:10180000681EA04211DDB8F1000F0CD1002004FBCE
:101810000B71CDE900A6029088B22022129B069996
:10182000FFF726FF10E001200490002008F13001AE
:10183000CAB204FB0B71CDE900A6029088B2129BDC
:101840000699FFF715FF00BF601CC4B2AC42C8DBAD
:1018500009B0BDE8F08F2DE9FE4F06460F4614464D
:101860009846DDE90D5ADDF8309010E0CDE9015AD7
:10187000CDF800902278434639463046FFF7F8FE0F
:10188000284605EBD07106EB61018EB2641C20780E
:101890000028EBD1BDE8FE8F10B50446201200F001
:1018A0001BF8E0B200F018F810BD10B50446204651
:1018B00000F012F810BD000010B5044602210548E2
:1018C000FFF727FD204600F007F802210148FFF747
:1018D00022FD10BD000C014010B5044610210B483C
:1018E000FFF717FD00BF0221094800F0AEFB0028FA
:1018F000F9D02146064800F0B4FB012000F00CFEB0
:1019000010210248FFF707FD10BD0000000801404C
:101910000030014008B50121084600F087F9012197
:101920000C48FFF7A5FC0121082000F07FF93020CA
:10193000ADF8000010208DF8030001208DF80200A2
:1019400069460548FFF709FC30210348FFF7E1FC31
:1019500008BD000000013000000C014000B587B058
:101960000121480200F062F90121042000F05EF933
:101970004FF4004000F02EF900208DF807004E20B3
:10198000ADF8040003208DF8060001A91648FFF702
:10199000E4FB0020029005904FF4602004900020AA
:1019A0008DF80D008DF80C0001208DF8180002A9AB
:1019B0000E48FFF777FA01210C48FFF753FA0B485E
:1019C000FFF798FA00BF0948FFF761FA0128FAD03B
:1019D0000648FFF794FA00BF0448FFF74EFA0128C3
:1019E000FAD007B000BD000000080140002401400B
:1019F0002DE9F04107460D4616461C4601210846D2
:101A000000F0F4F83846FFF79BFA0F4804800F48BF
:101A10000560466010200D4988600846C4600020BB
:101A2000086148614FF4807088618000C8610020BF
:101A300008624FF480504862002088623846FFF701
:101A40003BFBBDE8F08100000A000020CC00002034
:101A500010B5044600212046FFF766FA04480188C5
:101A60000448FFF777FB01212046FFF75DFA10BD20
:101A70000A0000203000024000BFFEE7704700006F
:101A800070B5002100230F22C47804B3154C2468DC
:101A900004F4E064C4F5E064210AC1F10403CA401F
:101AA000447804FA03F184781440214309010E4C70
:101AB0000678A155047804F01F050124AC40057890
:101AC0006D11AD0005F1E025C5F8004109E004788D
:101AD00004F01F050124AC40044D0678761145F84A
:101AE000264070BD0CED00E000E400E080E100E085
:101AF00002490143024A1160704700000000FA05E4
:101B00000CED00E000B587B0012141F20C0000F0BF
:101B10008DF80320ADF8040010208DF80700032095
:101B20008DF8060001A92748FFF717FB0321254878
:101B3000FFF7F1FB2020ADF8040003208DF806002C
:101B400018208DF8070001A91F48FFF706FB802029
:101B5000ADF8040001A91C48FFF7FFFA1020ADF80A
:101B600004008DF8070001A91748FFF7F6FA1021C5
:101B70001548FFF7D0FB0020ADF808004FF4827045
:101B8000ADF80A000020ADF80C000220ADF80E0000
:101B90000120ADF810004002ADF812000820ADF8A9
:101BA00014000020ADF816000720ADF8180002A9B7
:101BB000064800F058FA0121044800F031FA07B055
:101BC00000BD0000000C0140000801400030014051
:101BD0007047000001460020034A506820F440404E
:101BE00008435060704700000010024029B1064AC7
:101BF00052690243044B5A6104E0034A526982432A
:101C0000014B5A61704700000010024029B1064A9A
:101C1000D2690243044BDA6104E0034AD269824389
:101C2000014BDA61704700000010024029B1064AFA
:101C300092690243044B9A6104E0034A9269824329
:101C4000014B9A61704700000010024000B587B058
:101C500001210820FFF7EAFF01218803FFF7D6FFE3
:101C60004FF46040ADF8180018208DF81B000120DB
:101C70008DF81A0006A92848FFF76FFA10208DF892
:101C80001B004FF4A050ADF8180006A92248FFF73A
:101C900064FA04208DF81B004002ADF8180006A974
:101CA0001D48FFF75AFA1820ADF810000020ADF8D3
:101CB0000A00ADF80C00ADF80800ADF812004FF4C2
:101CC0000070ADF80E000020ADF804000720ADF85C
:101CD00014004FF48270ADF8060001A90F4800F01F
:101CE000C2F901210D4800F09BF94FF400510A4858
:101CF000FFF70FFB4FF480610748FFF70CFB4FF431
:101D000080510548FFF705FB4FF400410248FFF7FB
:101D100000FB07B000BD0000000C0140003800408F
:101D20001CB5044603208DF800000A208DF8010040
:101D300001208DF8020028208DF8030011208DF875
:101D400004000F208DF8050001208DF80700010325
:101D50002348FFF7DEFA9DF80010232000F012F967
:101D6000A4B99DF801102031C8B205221D4900F028
:101D7000E7F89DF80210222000F004F99DF8041005
:101D80002031C8B2202100F0FDF809E005221549F4
:101D9000302000F0D5F89DF807103D2000F0F2F853
:101DA0009DF80310252000F0EDF89DF80510262081
:101DB00000F0E8F83CB99DF8060040F00101202051
:101DC00000F0E0F806E09DF8060000F0FE0120209B
:101DD00000F0D8F84FF480510148FFF79CFA1CBD81
:101DE000000C0140387401082DE9F04107460D460A
:101DF00016464FF480610C48FFF78BFA384600F026
:101E000051F98046002405E0002000F04BF92855E8
:101E1000601CC4B2B442F7DB4FF480610248FFF7A4
:101E20007AFA4046BDE8F081000C014070B50446E6
:101E30004FF480610848FFF76CFA204600F032F951
:101E4000002000F02FF905464FF480610248FFF7AB
:101E500062FA284670BD0000000C014070B50546CE
:101E60004FF480512348FFF754FA20222946A0203E
:101E700000F066F84FF480511E48FFF74CFA4FF41B
:101E800080301D4908600AE01B490868411E1A4A53
:101E9000116020B9002000F061F9C0B270BD4FF4AC
:101EA00000611448FFF72CFA0028EDD10720FFF756
:101EB000BDFF04462146272000F064F804F010001E
:101EC00048B1FF21E12000F05DF810210BA0FEF7E2
:101ED00087F91020E2E704F0200028B120210DA0AE
:101EE000FEF77EF92020D9E721460FA0FEF778F90A
:101EF0002046D3E7000C0140180000200A53493265
:101F0000345231205458204D41583A307825580ADF
:101F1000000000000A534932345231205458204402
:101F2000533A307825580A000A5349323452312046
:101F300054582073746174653A307825580A00004B
:101F40002DE9F04107460C4615464FF480610C48D8
:101F5000FFF7DFF9384600F0A5F88046002605E0D7
:101F600014F8010B00F09EF8701CC6B2AE42F7DB0D
:101F70004FF480610248FFF7CEF94046BDE8F0819A
:101F8000000C014070B505460C464FF480610848CE
:101F9000FFF7BFF9284600F085F80646204600F016
:101FA00081F84FF480610248FFF7B5F9304670BD03
:101FB000000C01401CB511A103C9CDE900010024AA
:101FC000082000F01FF8052269463020FFF7B8FF0F
:101FD000052269461020FFF707FF06E01DF8040000
:101FE000662800D003E0601CC4B2052CF6DB00BFFD
:101FF000052C01D001201CBD0020FCE7666666664A
:1020000066000000054909884FF6C7721140034A6F
:102010001180114609880143118070470038004043
:1020200021B1028842F04002028004E002884FF6AB
:10203000BF731A40028070471AB183880B438380B4
:1020400002E083888B438380704702460020138917
:102050000B400BB1012000E0002070470146888949
:1020600070478181704710B50022028802F4415206
:102070000B884C8823438C882343CC8823430C89CA
:1020800023434C8923438C892343CC8923431A431C
:102090000280838B4FF2FF74234083830B8A038279
:1020A00010BD000070B504464FF480302949086027
:1020B0000AE028490868411E264A116020B901201B
:1020C00000F04CF8C0B270BD02212348FFF7BDFFFD
:1020D0000028EED021462048FFF7C3FF0AE01D4943
:1020E0000868411E1B4A116020B9022000F036F832
:1020F000C0B2E8E701211848FFF7A7FF0028EED09B
:102100001548FFF7ABFFC5B20AE012490868411E47
:10211000104A116020B9032000F020F8C0B2D2E7C5
:1021200002210D48FFF791FF0028EED00AE009498F
:102130000868411E074A116020B9042000F00EF81B
:10214000C0B2C0E780210448FFF77FFF0128EED02E
:102150002846B8E71800002000380040014600205B
:102160007047704710B500F001F810BD0CB50020A5
:10217000019000903348006840F480303149086095
:1021800000BF3048006800F4003000900198401C07
:102190000190009818B90198B0F5A06FF1D12948C5
:1021A000006800F4003010B10120009001E0002030
:1021B00000900098012843D12348006840F01000A7
:1021C000214908600846006820F0030008600846BE
:1021D000006840F0020008601A48406819494860E9
:1021E0000846406848600846406840F4806048609F
:1021F0000846406820F47C1048600846406840F477
:10220000E81048600846006840F08070086000BF31
:102210000C48006800F000700028F9D009484068B8
:1022200020F00300074948600846406840F002007B
:10223000486000BF0348406800F00C000828F9D14E
:102240000CBD00000010024000200240042808D10C
:102250004FF0E021096941F004014FF0E0221161E3
:1022600007E04FF0E021096921F004014FF0E0227E
:10227000116170477047000010B51348006840F0C6
:1022800001001149086008464068104908400E499D
:102290004860084600680E4908400B490860084637
:1022A000006820F4802008600846406820F4FE00A2
:1022B00048604FF41F008860FFF754FF4FF0006044
:1022C0000449086010BD0000001002400000FFF843
:1022D000FFFFF6FE08ED00E010B501210C4800F00C
:1022E0005CF8A0B101210A4800F048F80120094932
:1022F000087009480088401C074908800846008883
:10230000322804DB0020088001200449087010BD39
:102310000004004002000020000000200300002014
:102320001FB501210220FFF771FC40F2E730ADF844
:1023300008004720ADF804000020ADF80A00ADF811
:10234000060001A90C4800F043F8012211460A4892
:1023500000F034F81D208DF8000001208DF80100F8
:102360008DF802008DF803006846FFF789FB012114
:10237000014800F006F81FBD00040040CA43028275
:10238000704721B1028842F00102028004E0028815
:102390004FF6FE731A400280704730B502460020A7
:1023A00000230024158A05EA0103958905EA010442
:1023B00013B10CB1012000E0002030BD1AB18389B7
:1023C0000B43838102E083898B4383817047000044
:1023D000002202881D4B98420ED01D4B98420BD014
:1023E000B0F1804F08D01B4B984205D01A4B984251
:1023F00002D01A4B984204D14FF68F731A404B8883
:102400001A43174B984207D0164B984204D04FF608
:10241000FF431A40CB881A4302808B8883850B8840
:1024200003850A4B98420BD0094B984208D00E4BBB
:10243000984205D00D4B984202D00D4B984201D1E5
:102440000B7A03860123838270470000002C014031
:10245000003401400004004000080040000C00402F
:1024600000100040001400400040014000440140C2
:102470000048014070B504460D462560A280E38007
:10248000042626846684A688208C301A401E06B254
:10249000A684E688208C301A401E06B2E684A08C02
:1024A000A083E68CE683012084F8400084F8410094
:1024B0000020E0620026A6866686E6862687E6631A
:1024C00045F65D401034E0864FF6FF7060860020D0
:1024D000A08620606060A060103C002109E000261A
:1024E00004F14C0040F8316000EBC1000671481C5B
:1024F000C1B20329F3DB02480460012070BD000073
:102500000C000020014602480160012070470000D5
:102510000C00002000BFFEE700BF011EA0F101007B
:10252000FBD1704710B56FF00400FFF78FFE0A482B
:102530000068C0080949B0FBF1F009490880084665
:10254000008800EB4001C1EBC0104FF6FF7101EABB
:10255000C0000449088010BD2000002040420F0048
:102560000600002008000020014609B9002070473D
:102570001148008848434FF0E023586100209861DB
:102580001846006940F00100186100BF4FF0E020DC
:10259000026902F0010018B102F480300028F5D081
:1025A0004FF0E020006920F001004FF0E0231861B7
:1025B0000020986100BFDAE7080000208A68002A3E
:1025C00001DCFEF727B8521E8A604A68C0B2531C6D
:1025D0004B601070704700000EB500BF00BF00BF19
:1025E0004FF4A060FFF784FAFFF79CFFFFF7B6F9FE
:1025F000FFF790F9FFF794FEFEF792FEFEF77AFDE3
:10260000FFF724FB4FF48C73F02226492648FFF78E
:1026100031FF2548FFF776FFFEF764FF4FF6FF70A6
:102620004FF48C73F022002100900846FEF7EAFE7A
:10263000FFF7C0FC60B1002018214FF6FF7203467F
:10264000CDE90021029019A20146FFF704F90BE041
:10265000002018214FF6FF720346CDE900210290B9
:1026600016A20146FFF7F7F80020FFF759FB0020FC
:1026700018214FF6FF720346CDE90021029012A205
:102680006021FFF7E8F80BE011480078012802D13B
:1026900000200F49087000F029F80120FFF764FFBF
:1026A000F2E70000E313000840000020202045521C
:1026B000524F5220322E3447000000002020322E8C
:1026C00034472059455300006F6B3F3F3F000000E7
:1026D0000200002010B50246012000E050430B1E0E
:1026E000A1F10104E1B2F9D110BD00000EB5102036
:1026F0004FF6FF7100220323CDE9002102901F480D
:102700000278503240210020FFF75AF801201C497E
:10271000087048708870C870087148718871C871F5
:10272000087248728872C872087348738873C873D5
:10273000087448748874C874087548758875C875B5
:10274000087648768876C876087748778877C87795
:102750000846FFF783FB0949087010204FF6FF7108
:1027600000220323CDE90021029004480278603260
:1027700040210020FFF724F80EBD00001C000020BF
:10278000F80000200000000000000000002F000002
:1027900000000700070000147F147F1400242A7F24
:1027A0002A120062640813230036495522500000A3
:1027B0000503000000001C224100000041221C0013
:1027C0000014083E08140008083E0808000000A095
:1027D0006000000808080808000060600000002091
:1027E00010080402003E5149453E0000427F40006F
:1027F000004261514946002141454B3100181412F5
:102800007F10002745454539003C4A4949300001C1
:102810007109050300364949493600064949291E10
:102820000000363600000000563600000008142272
:102830004100001414141414000041221408000272
:102840000151090600324959513E007C1211127C97
:10285000007F49494936003E41414122007F4141C4
:10286000221C007F49494941007F09090901003EB6
:102870004149497A007F0808087F0000417F4100F4
:10288000002040413F01007F08142241007F40406A
:102890004040007F020C027F007F0408107F003E52
:1028A0004141413E007F09090906003E4151215E38
:1028B000007F091929460046494949310001017F35
:1028C0000101003F4040403F001F2040201F003FCB
:1028D0004038403F0063140814630007087008077D
:1028E00000615149454300007F41410000552A5590
:1028F0002A55000041417F0000040201020400400B
:10290000404040400000010204000020545454782C
:10291000007F48444438003844444420003844444C
:10292000487F00385454541800087E0901020018EA
:10293000A4A4A47C007F080404780000447D400027
:10294000004080847D00007F102844000000417F0B
:102950004000007C04180478007C080404780038E7
:102960004444443800FC242424180018242418FC6F
:10297000007C0804040800485454542000043F44D8
:102980004020003C4040207C001C2040201C003C9B
:102990004030403C004428102844001CA0A0A07CEB
:1029A000004464544C441414141414140000000023
:1029B000000000000000000000000000000000F81F
:1029C00000000000000000333000000000100C0682
:1029D000100C0600000000000000000040C078401D
:1029E000C0784000043F04043F040400007088FCE9
:1029F00008300000001820FF211E0000F008F00041
:102A0000E018000000211C031E211E0000F00888B1
:102A1000700000001E2123241927211010160E001B
:102A2000000000000000000000000000000000E0C6
:102A300018040200000000071820400000020418DB
:102A4000E00000000040201807000000404080F037
:102A5000804040000202010F01020200000000F06D
:102A6000000000000101011F010101000000000041
:102A70000000000080B070000000000000000000B6
:102A8000000000000001010101010101000000003F
:102A900000000000003030000000000000000000D6
:102AA00080601804006018060100000000E01008B3
:102AB0000810E000000F102020100F00001010F888
:102AC000000000000020203F2020000000700808C7
:102AD0000888700000302824222130000030088847
:102AE000884830000018202020110E000000C0206F
:102AF00010F8000000070424243F240000F8088890
:102B0000880808000019212020110E0000E010881C
:102B100088180000000F112020110E00003808084E
:102B2000C83808000000003F00000000007088085E
:102B300008887000001C222121221C0000E01008DF
:102B40000810E0000000312222110F00000000C038
:102B5000C0000000000000303000000000000080D5
:102B600000000000000080600000000000008040C5
:102B700020100800000102040810200040404040DE
:102B80004040400004040404040404000008102031
:102B90004080000000201008040201000070480876
:102BA0000808F0000000003036010000C030C828DE
:102BB000E810E0000718272423140B000000C03899
:102BC000E0000000203C23020227382008F8888813
:102BD00088700000203F202020110E00C03008081F
:102BE00008083800071820202010080008F80808F6
:102BF0000810E000203F202020100F0008F88888EF
:102C0000E8081000203F20202320180008F88888BA
:102C1000E8081000203F200003000000C030080832
:102C20000838000007182020221E020008F80800BB
:102C30000008F808203F210101213F20000808F882
:102C4000080800000020203F2020000000000808A5
:102C5000F8080800C08080807F00000008F888C065
:102C600028180800203F20012638200008F8080016
:102C700000000000203F20202020300008F8F8004D
:102C8000F8F80800203F003F003F200008F830C05F
:102C90000008F808203F200007183F00E01008084F
:102CA0000810E0000F10202020100F0008F808087E
:102CB0000808F000203F210101010000E010080891
:102CC0000810E0000F18242438504F0008F88888B6
:102CD00088887000203F2000030C30200070880896
:102CE000080838000038202121221C00180808F8A4
:102CF000080818000000203F2000000008F8080025
:102D00000008F808001F202020201F0008788800F5
:102D100000C83808000007380E010000F80800F865
:102D20000008F800033C0700073C0300081868800F
:102D30008068180820302C03032C30200838C80085
:102D4000C83808000000203F2000000010080808D4
:102D5000C83808002038262120201800000000FE76
:102D6000020202000000007F40404000000C30C022
:102D700000000000000000010638C000000202024E
:102D8000FE000000004040407F0000000000040200
:102D9000020204000000000000000000000000002B
:102DA000000000008080808080808080000202041B
:102DB0000000000000000000000000000000808013
:102DC000808000000019242222223F2008F8008081
:102DD00080000000003F112020110E000000008044
:102DE00080800000000E11202020110000000080D3
:102DF0008088F800000E112020103F200000808005
:102E000080800000001F222222221300008080F018
:102E1000888888180020203F202000000000808043
:102E200080808000006B94949493600008F8008088
:102E300080800000203F210000203F2000809898E3
:102E4000000000000020203F202000000000008043
:102E50009898000000C08080807F000008F8000083
:102E600080808000203F24022D302000000808F8D8
:102E7000000000000020203F202000008080808093
:102E800080808000203F20003F20003F8080008025
:102E900080800000203F210000203F200000808033
:102EA00080800000001F202020201F0080800080E4
:102EB0008000000080FFA12020110E000000008093
:102EC00080808000000E112020A0FF808080800084
:102ED0008080800020203F212000010000008080B1
:102EE000808080000033242424241900008080E0A6
:102EF000808000000000001F202000008080000073
:102F000000808000001F202020103F208080800053
:102F10000080808000010E30080601008080008063
:102F2000008080800F300C030C300F000080800088
:102F3000808080000020312E0E31200080808000B3
:102F40000080808080818E70180601000080808063
:102F5000808080000021302C222130000000000001
:102F6000807C020200000000003F404000000000A2
:102F7000FF00000000000000FF0000000002027CD3
:102F8000800000000040403F0000000000060101FA
:102F90000202040400000000000000000000000025
:102FA000000000000000000000000404040404000D
:102FB0000004000014140A000000000000000000DB
:102FC00000000A0A1F0A0A1F0A0A000000040E1560
:102FD00005060C14150E0400000012150D152E2CFC
:102FE0002A1200000000040A0A36151529160000EE
:102FF00002020100000000000000000010080804A8
:10300000040404040808100002040408080808085E
:103010000404020000000004150E0E150400000058
:1030200000000008083E0808000000000000000042
:10303000000000000202010000000000003F00004C
:10304000000000000000000000000000000200007E
:1030500000201010080804040202010000000E11F4
:1030600011111111110E00000000040604040404E3
:10307000040E000000000E1111080402011F0000E0
:1030800000000E11100C1010110E00000000080CB2
:103090000C0A091F081C000000001F01010F11107D
:1030A000110E000000000C12010D1311110E000092
:1030B00000001E10080804040404000000000E11A3
:1030C000110E1111110E000000000E111119161031
:1030D00009060000000000000400000000040000D9
:1030E00000000000000400000004040000001008BC
:1030F0000402020408100000000000003F003F002E
:103100000000000000000204081010080402000083
:1031100000000E11110804040004000000001C222D
:10312000292D2D1D221C0000000004040C0A0A1E7B
:103130001233000000000F12120E1212120F0000C4
:1031400000001E1101010101110E000000000F120C
:1031500012121212120F000000001F120A0E0A02B1
:10316000121F000000001F120A0E0A0202070000D0
:1031700000001C1201013911120C00000000331272
:10318000121E12121233000000001F040404040473
:10319000041F000000003E08080808080808090786
:1031A000000037120A060A12123700000000070258
:1031B00002020202223F000000003B1B1B1B1515F0
:1031C0001535000000003B1216161A1A12170000DF
:1031D00000000E1111111111110E000000000F124C
:1031E000120E02020207000000000E111111111749
:1031F000190E180000000F12120E0A1212370000EA
:1032000000001E1101060810110F000000001F151C
:1032100004040404040E00000000331212121212FF
:10322000120C000000003312120A0A0C0404000001
:103230000000151515150E0A0A0A000000001B0AE9
:103240000A04040A0A1B000000001B0A0A0A0404FC
:10325000040E000000001F0908040402121F0000F1
:103260001C0404040404040404041C0000020204FA
:1032700004040808081010000E08080808080808C8
:1032800008080E00040A0000000000000000000012
:1032900000000000000000000000003F02040000E9
:1032A000000000000000000000000000000C121CE4
:1032B000123C000000030202020E1212120E000065
:1032C00000000000001C1202120C00000018101078
:1032D000101C1212123C000000000000000C121E14
:1032E000021C000000182404041E0404041E000034
:1032F00000000000003C120C021C221C0003020211
:10330000020E12121237000000040400000604042A
:10331000040E000000080800000C08080808080750
:1033200000030202021A0A060A130000000704043E
:1033300004040404041F000000000000000F151521
:103340001515000000000000000F121212370000D7
:1033500000000000000C1212120C0000000000001F
:10336000000F1212120E020700000000001C1212C1
:10337000121C103800000000001B060202070000AB
:1033800000000000001E020C101E000000000004DF
:10339000041E0404041C000000000000001B1212A4
:1033A000123C000000000000001B0A0A0404000098
:1033B000000000000015150E0A0A000000000000C1
:1033C000001B0A040A1B0000000000000033121258
:1033D0000C08040300000000001E0804041E000086
:1033E00018080808080C0808080818000808080841
:1033F0000808080808080808060404040408040467
:10340000040406001609000000000000000000008F
:1034100000000000000000000000000000000000AC
:103420000000000808080808080800001818000034
:1034300000486C24120000000000000000000000A2
:103440000000002424247F1212127F1212120000A6
:103450000000081C2A2A0A0C1828282A2A1C0808F6
:1034600000000022251515152A5854545422000036
:103470000000000C1212120A76252911916E00002C
:103480000006060403000000000000000000000029
:1034900000402010100808080808081010204000FC
:1034A0000002040808101010101010080804020090
:1034B0000000000008086B1C1C6B080800000000DE
:1034C00000000000080808087F080808080000003D
:1034D00000000000000000000000000006060403D9
:1034E0000000000000000000FE00000000000000DE
:1034F00000000000000000000000000006060000C0
:10350000000080404020201010080804040202003F
:103510000000001824424242424242422418000065
:10352000000000080E08080808080808083E000007
:103530000000003C4242422020100804427E00006D
:103540000000003C4242201820404042221C000063
:10355000000000203028242422227E202078000031
:103560000000007E0202021A26404042221C000097
:10357000000000382402021A2642424224180000A9
:103580000000007E22221010080808080808000029
:103590000000003C4242422418244242423C0000C7
:1035A000000000182442424264584040241C00009D
:1035B00000000000000018180000000018180000AB
:1035C00000000000000000080000000000080804DF
:1035D00000000040201008040204081020400000F1
:1035E0000000000000007F0000007F0000000000DD
:1035F000000000020408102040201008040200000F
:103600000000003C42424640201010001818000004
:103610000000001C225A555555552D42221C000011
:103620000000000808181414243C224242E700005D
:103630000000001F2222221E22424242221F0000BE
:103640000000007C4242010101010142221C0000F5
:103650000000001F2242424242424242221F00001A
:103660000000003F4212121E12120242423F0000AE
:103670000000003F4212121E121202020207000056
:103680000000003C2222010101712122221C0000C5
:10369000000000E7424242427E42424242E70000CE
:1036A0000000003E0808080808080808083E000056
:1036B0000000007C10101010101010101010110FCE
:1036C0000000007722120A0E0A121222227700004E
:1036D000000000070202020202020202427F000012
:1036E00000000077363636362A2A2A2A2A6B00004E
:1036F000000000E346464A4A5252526262470000C6
:103700000000001C2241414141414141221C000076
:103710000000003F424242423E0202020207000015
:103720000000001C2241414141414D53321C6000C8
:103730000000003F4242423E1212222242C70000D5
:103740000000007C4242020418204042423E000039
:103750000000007F4908080808080808081C000045
:10376000000000E74242424242424242423C0000E4
:10377000000000E742422224241414180808000024
:103780000000006B49494949555536222222000064
:10379000000000E7422424181818242442E70000FF
:1037A000000000772222141408080808081C0000F2
:1037B0000000007E2120101008040442423F000057
:1037C00000780808080808080808080808087800A9
:1037D00000000202040408080810102020204040C5
:1037E000001E1010101010101010101010101E00DD
:1037F000003844000000000000000000000000004D
:10380000000000000000000000000000000000FFB9
:10381000000608000000000000000000000000009A
:10382000000000000000003C4278444242FC0000DE
:10383000000000030202021A26424242261A000039
:10384000000000000000003844020202443800007A
:1038500000000060404040784442424264D800008A
:10386000000000000000003C427E0202423C0000DA
:10387000000000F08808087E08080808083E0000DC
:10388000000000000000007C22221C023C42423C5E
:10389000000000030202023A4642424242E70000B0
:1038A0000000000C0C00000E08080808083E00008C
:1038B0000000003030000038202020202020221E70
:1038C0000000000302020272120A161222770000A0
:1038D0000000000E0808080808080808083E000054
:1038E000000000000000007F9292929292B70000C8
:1038F000000000000000003B4642424242E7000058
:10390000000000000000003C42424242423C0000F5
:10391000000000000000001B26424242221E020757
:10392000000000000000007844424242447840E039
:1039300000000000000000774C040404041F000095
:10394000000000000000007C42023C40423E0000BB
:10395000000000000008083E0808080808300000C1
:1039600000000000000000634242424262DC0000AE
:1039700000000000000000E74224241408080000B2
:1039800000000000000000EB4949555522220000CC
:10399000000000000000007624181818246E0000B3
:1039A00000000000000000E7422424141808080763
:1039B000000000000000007E22100808447E000085
:1039C00000C0202020202010202020202020C00007
:1039D00010101010101010101010101010101010E7
:1039E0000006080808080810080808080808060063
:1039F0000C32C200000000000000000000000000C7
:103A000000000000000000000000000000000000B6
:103A100000000000000000000000000000000000A6
:103A20000000000000000000000000000000000096
:103A30000000000000000000600060006000600006
:103A400060006000600040002000200020000000B6
:103A50000000000060006000600000000000000046
:103A600000000000600660063003980188004400F2
:103A70000000000000000000000000000000000046
:103A80000000000000000000000000000000000036
:103A900000000000000000001002100210021002DE
:103AA000FE07FE0708020801080108010801FE07D9
:103AB000FE070401040104010401000000000000ED
:103AC00000000000000040004000F00158034C03DB
:103AD000CC034C0058007000E000C001C00140035E
:103AE0004C035C034C034801F00040004000000020
:103AF00000000000000000000E010A01910091008A
:103B00009100510051003A00AE03A002500450044D
:103B100048044804480484028403000000000000B4
:103B2000000000000000000038006C006C006C0019
:103B30006C006C002C0098071C011A013301330142
:103B40006301E300C308C6093C0700000000000051
:103B5000000000000C001C00100010000800040011
:103B60000000000000000000000000000000000055
:103B70000000000000000000000000000000000045
:103B800000000000000400020001800080004000EE
:103B90004000200020002000200020002000200005
:103BA000400040008000800000010002000400008E
:103BB00000000000020004000800100010002000B7
:103BC0002000400040004000400040004000400015
:103BD0002000200010001000080004000200000077
:103BE0000000000000000000000000004000C000D5
:103BF0004000460C4E0FD001F0015E0F460C400015
:103C00004000400000000000000000000000000034
:103C10000000000000000000000000000000400064
:103C20004000400040004000FE0F400040004000C7
:103C30004000400000000000000000000000000004
:103C40000000000000000000000000000000000074
:103C50000000000000000000000000000000000064
:103C6000000000000C001C00100010000800040000
:103C70000000000000000000000000000000000044
:103C80000000000000000000FE070000000000002F
:103C90000000000000000000000000000000000024
:103CA0000000000000000000000000000000000014
:103CB0000000000000000000000000000000000004
:103CC000000000001C001C001C00000000000000A0
:103CD00000000000000400060002000300010001D3
:103CE00080008000400040006000200020001000A4
:103CF0001000080008000C0004000600020000008C
:103D000000000000000000000000F00098010C031B
:103D10000C03060606060606060606060606060640
:103D200006060C030C039801F000000000000000E0
:103D30000000000000000000000040007C00600067
:103D40006000600060006000600060006000600073
:103D50006000600060006000FC03000000000000E4
:103D600000000000000000000000F80084010203D1
:103D700006030603000300018001C000600020006C
:103D80001000080204020602FE030000000000000A
:103D9000000000000000000000007800C60086015E
:103DA000860180018001C0007000800100010003D5
:103DB0000003060306038601F8000000000000006F
:103DC0000000000000000000000080018001C00130
:103DD000A001A00190018801880184018201FE0FE9
:103DE0008001800180018001E007000000000000E8
:103DF00000000000000000000000FC0304000400BC
:103E0000040004000400F4008C0104030003000318
:103E10000603060382018401F80000000000000090
:103E200000000000000000000000E00118030C0387
:103E30000C0004000600E60116030E060606060640
:103E4000060604060C021803F00000000000000043
:103E500000000000000000000000F8070C0604024B
:103E6000040100010001800080004000400040008B
:103E70006000600060006000600000000000000062
:103E800000000000000000000000F8010C0306061E
:103E9000060606060C021C03F000C8010C03060609
:103EA0000606060606060C03F001000000000000EE
:103EB00000000000000000000000F0000C010C03F6
:103EC000060206060606060606078C0678060006A3
:103ED000000300030C018C017800000000000000CA
:103EE00000000000000000000000000000000000D2
:103EF00000000000E000E000E00000000000000022
:103F000000000000E000E000E00000000000000011
:103F100000000000000000000000000000000000A1
:103F200000000000600060000000000000000000D1
:103F30000000000000006000600040002000200041
:103F400000000000000000000004000200018000EA
:103F500040002000100008000400080010002000AD
:103F6000400080000001000200040000000000008A
:103F70000000000000000000000000000000000041
:103F800000000000FE07000000000000FE07000027
:103F90000000000000000000000000000000000021
:103FA00000000000000000000400080010002000D5
:103FB00040008000000100020004000200018000B7
:103FC0004000200010000800040000000000000075
:103FD00000000000000000000000E0031806040CD0
:103FE000040C0C0C0C0C0007800140004000400049
:103FF00000000000E000E000E00000000000000021
:104000000000000000000000E00018030C02CC05D6
:1040100064056605A605B604B604B604B604B60281
:10402000E4010C040C021803F00000000000000082
:104030000000000000000000000060006000500070
:10404000D00090009000880088010801F801040366
:1040500004030402020202060F0F00000000000029
:1040600000000000000000000000FE008C030C03B4
:104070000C030C030C038C01FC000C030C020C065B
:104080000C060C060C060C03FE01000000000000EC
:1040900000000000000000000000E00318030C0610
:1040A0000C040404060006000600060006000600D4
:1040B00006040C040C021803F000000000000000CD
:1040C000000000000000000000007F008C010C03D5
:1040D0000C030C060C060C060C060C060C060C0653
:1040E0000C060C030C038C017F0000000000000094
:1040F00000000000000000000000FF0306030604AB
:104100000604060086008600FE0086008600860003
:104110000600060406040602FF030000000000007B
:1041200000000000000000000000FF03060306047A
:104130000604060086008600FE00860086008600D3
:1041400006000600060006001F0000000000000038
:1041500000000000000000000000F00018010C0248
:104160000C0204020600060006000600C60F060345
:1041700006030C030C031803F0000000000000000D
:10418000000000000000000000000F0F06060606F9
:104190000606060606060606FE07060606060606C6
:1041A00006060606060606060F0F000000000000C1
:1041B00000000000000000000000FC036000600040
:1041C00060006000600060006000600060006000EF
:1041D0006000600060006000FC0300000000000060
:1041E00000000000000000000000F807C000C00050
:1041F000C000C000C000C000C000C000C000C000BF
:10420000C000C000C000C000C000C60066003C0086
:1042100000000000000000000000CF038601C6007F
:1042200046002600160036002E006E004600C6002E
:1042300086008601060106038F07000000000000CB
:10424000000000000000000000001F000600060043
:10425000060006000600060006000600060006002E
:104260000600060406040602FF030000000000002A
:10427000000000000000000000000707860386031E
:104280008E038E034E034E034A035A035A033A0326
:1042900032033203320312038707000000000000DC
:1042A000000000000000000000008E0F0C021C0245
:1042B0001C0234023402640264024402C402840216
:1042C00084038403040304031F02000000000000B1
:1042D00000000000000000000000F00098010C0346
:1042E0000C0206060606060606060606060606066C
:1042F00006060C020C039801F0000000000000000C
:1043000000000000000000000000FF000603060699
:1043100006060606060606068603FE0006000600DA
:1043200006000600060006001F0000000000000056
:1043300000000000000000000000F00098010C03E5
:104340000C0206060606060606060606060606060B
:1043500076064C02CC039801F000800700030000B1
:1043600000000000000000000000FF010603060638
:104370000606060606060603FE004600C600860080
:1043800086010603060306060F0E0000000000006B
:1043900000000000000000000000F8020C0306020C
:1043A000060206000E003C00F800E0038003000750
:1043B0000206020606060C03F001000000000000E1
:1043C00000000000000000000000FE076204610819
:1043D00061086000600060006000600060006000D4
:1043E0006000600060006000F80100000000000054
:1043F000000000000000000000001E070C020C027C
:104400000C020C020C020C020C020C020C020C023C
:104410000C020C020C021801F00000000000000069
:10442000000000000000000000000F070602040169
:1044300004010C010C0188008800980098005000CD
:10444000500070003000200020000000000000003C
:1044500000000000000000000000F70E62044204AB
:104460004604460464026402E402E4029C029C01E5
:104470009801980188018800880000000000000071
:10448000000000000000000000009E070C01080171
:1044900018019000B0006000200060006000D000B3
:1044A00090008801080104038E070000000000004E
:1044B000000000000000000000000F0F06040402CE
:1044C0000C0208011801B800B00070006000600024
:1044D0006000600060006000F80100000000000063
:1044E00000000000000000000000FC070C020603B2
:1044F00002018001800040004000200020001000E8
:10450000180008040C040402FE0300000000000070
:1045100000000000E0032000200020002000200018
:10452000200020002000200020002000200020008B
:10453000200020002000200020002000E0030000D8
:104540000000000000000000040004000800080053
:104550001000100010002000200040004000C000AB
:10456000800080000001000100020002000200043F
:10457000000000007C00400040004000400040007F
:10458000400040004000400040004000400040002B
:104590004000400040004000400040007C0000001F
:1045A0000000600090000801000000000000000012
:1045B00000000000000000000000000000000000FB
:1045C00000000000000000000000000000000000EB
:1045D00000000000000000000000000000000000DB
:1045E00000000000000000000000000000000000CB
:1045F0000000000000000000000000000000FF0FAD
:104600000000000018006000000000000000000032
:10461000000000000000000000000000000000009A
:10462000000000000000000000000000000000008A
:10463000000000000000000000000000000000007A
:1046400000000000F0010C030C030003E0031C0356
:104650000E03060306038E0B7C0E00000000000014
:10466000000000000000000008000E000C000C001C
:104670000C000C00CC013C031C060C060C060C06BE
:104680000C060C060C021C03E401000000000000F4
:10469000000000000000000000000000000000001A
:1046A00000000000F0008C018C018601060006006D
:1046B000060006020C020C01F000000000000000E1
:1046C00000000000000000000002C003000300031F
:1046D0000003000378038C030C03060306030603A0
:1046E0000603060304038C077801000000000000A5
:1046F00000000000000000000000000000000000BA
:1047000000000000E001180308020C060C06FC077C
:104710000C000C0018041802E0010000000000006A
:1047200000000000000000000000C003600630062A
:1047300030003000FE01300030003000300030002A
:104740003000300030003000FC01000000000000AC
:104750000000000000000000000000000000000059
:1047600000000000F007D8068C018C018C01980134
:10477000F8000C00FC00CC03060306038E03F800CF
:10478000000000000000000008000E000C000C00FB
:104790000C000C00EC011C030C030C030C030C03B9
:1047A0000C030C030C030C039E0700000000000028
:1047B0000000000000000000000060006000000039
:1047C000000040007C00600060006000600060004D
:1047D0006000600060006000FC030000000000005A
:1047E00000000000000000000000C001C001000047
:1047F00000000001F0018001800180018001800142
:10480000800180018001800180018001CC007C005A
:10481000000000000000000008000E000C000C006A
:104820000C000C008C038C008C004C006C005C00B5
:104830008C008C010C010C039E070000000000009E
:10484000000000000000000040007C0060006000EC
:104850006000600060006000600060006000600058
:104860006000600060006000FC03000000000000C9
:104870000000000000000000000000000000000038
:10488000000000003707EE06660666066606660646
:104890006606660666066606FF0F0000000000005A
:1048A0000000000000000000000000000000000008
:1048B00000000000EE011C030C030C030C030C03AE
:1048C0000C030C030C030C039E0700000000000007
:1048D00000000000000000000000000000000000D8
:1048E00000000000F00098010C030606060606060C
:1048F000060606060C030C03F00000000000000092
:1049000000000000000000000000000000000000A7
:1049100000000000EE011C030C060C060C060C0641
:104920000C060C060C031C03EC010C000C003E00F2
:104930000000000000000000000000000000000077
:104940000000000078028C030C0306030603060334
:104950000603060304038C03780300030003C00767
:104960000000000000000000000000000000000047
:10497000000000009F0358063806180018001800B1
:104980001800180018001800FF00000000000000C8
:104990000000000000000000000000000000000017
:1049A00000000000F0031C030C020C023800F000B1
:1049B000C003040304038C03FC010000000000009A
:1049C00000000000000000000000000020002000A7
:1049D00030003000FE013000300030003000300088
:1049E0003000300030023002E00100000000000022
:1049F00000000000000000000000000000000000B7
:104A0000000008028E030C030C030C030C030C03C0
:104A10000C030C030C039C0778010000000000004D
:104A20000000000000000000000000000000000086
:104A3000000000001E070C02080108011801900088
:104A4000B000B00060006000200000000000000026
:104A50000000000000000000000000000000000056
:104A600000000000F70E6204460464026402EC02D7
:104A70009C019801980198010800000000000000C6
:104A80000000000000000000000000000000000026
:104A900000000000BC0718011001B00060006000B9
:104AA000E0009000080108039E07000000000000DD
:104AB00000000000000000000000000000000000F6
:104AC000000000009E070801080108019000900006
:104AD000B0006000600060002000200024001C0086
:104AE00000000000000000000000000000000000C6
:104AF00000000000FC018401C400440060002000AC
:104B00003000180208020C03FC0100000000000045
:104B10000000000000038000800080008000800012
:104B20008000800080004000200040008000800065
:104B30008000800080008000800080000003000072
:104B40004000400040004000400040004000400065
:104B50004000400040004000400040004000400055
:104B60004000400040004000400040004000400045
:104B7000000000000C0010001000100010001000D9
:104B80001000100010002000400020001000100055
:104B90001000100010001000100010000C000000A9
:104BA00000001C002204C20480030000000000007A
:104BB00000000000000000000000000000000000F5
:104BC00000000000000000000000000000000000E5
:104BD00000000000000000000000000000000000D5
:104BE00000000000000000000000000000000000C5
:104BF00000000000000000000000000000000000B5
:104C000000000000000000000000000000000000A4
:104C100000000000000000000000C001C001C00151
:104C2000C001C001C001C001800080008000800080
:104C30008000800080000000000000000000800173
:104C4000C003C0038001000000000000000000005D
:104C5000000000000000E01CE01CF01E700E380791
:104C6000180308018400000000000000000000009C
:104C70000000000000000000000000000000000034
:104C80000000000000000000000000000000000024
:104C900000000000000000000000000020102010B4
:104CA000201020102010FE7FFE7F10081008100832
:104CB0001008100810081008FE7FFE7F0804080482
:104CC00008040804080400000000000000000000C0
:104CD000000000000000000000010001C007601992
:104CE000103118311839183938017001E001C0034A
:104CF0008007000F001D003900311C311C310C31C0
:104D00000C11180DE0070001000100010000000077
:104D10000000000000000000000000001C10361819
:104D20006308630C63046304630263026301361D5A
:104D30009C3780228063406340632063206330633C
:104D400010221836081C00000000000000000000BF
:104D5000000000000000000000000000F0009801CA
:104D60008C018C018C018C018C00CC007800183EE9
:104D70001C083608320863046304C304C303834376
:104D800006438E26781C0000000000000000000092
:104D90000000000000001C003C003C00300030001F
:104DA00010000C00060000000000000000000000E1
:104DB00000000000000000000000000000000000F3
:104DC00000000000000000000000000000000000E3
:104DD0000000000000000040002000100008000C4F
:104DE000000400060003000300038001800180012D
:104DF0008001800180018001800100030003000325
:104E000000060006000C0008001000200040000012
:104E10000000000000000200040008001000300044
:104E200020006000C000C000C0008001800180013F
:104E300080018001800180018001C000C000C000AD
:104E40006000600030001000080004000200000054
:104E50000000000000000000000000000000000052
:104E600000018003800300011C713C79783DC0077C
:104E70000001C007783D3C791C710001800380036C
:104E800080010000000000000000000000000000A1
:104E90000000000000000000000000000000000012
:104EA00000000001000100010001000100010001FB
:104EB000FC7F000100010001000100010001000170
:104EC00000000000000000000000000000000000E2
:104ED00000000000000000000000000000000000D2
:104EE00000000000000000000000000000000000C2
:104EF00000000000000000000000000000000000B2
:104F00001C003C003C003000300010000C0006008B
:104F10000000000000000000000000000000000091
:104F20000000000000000000000000000000000081
:104F3000FE7F0000000000000000000000000000F4
:104F40000000000000000000000000000000000061
:104F50000000000000000000000000000000000051
:104F60000000000000000000000000000000000041
:104F70000000000000000000000000000000180019
:104F80003C003C0018000000000000000000000091
:104F90000000000000000040006000200030001011
:104FA00000180008000C00040006000200030001C5
:104FB00080018000C0004000600020003000100030
:104FC000180008000C0004000600020000000000A9
:104FD000000000000000000000000000C007600C9E
:104FE00030181830183018200C600C600C600C6001
:104FF0000C600C600C600C600C60182018301830CD
:105000003018600CC0070000000000000000000025
:10501000000000000000000000000000000180010E
:10502000F801800180018001800180018001800100
:105030008001800180018001800180018001800168
:105040008001C003F81F0000000000000000000005
:10505000000000000000000000000000E007101C3D
:105060000818043004300C300C30003000180008F0
:1050700000040002000180004000202010200820D1
:105080000430FC1FFC1F00000000000000000000B6
:10509000000000000000000000000000E003180E07
:1050A0000C0C0C180C180C180018000C0006C0038F
:1050B000000E00180010003000300C300C300C10C6
:1050C0000C18180CE00300000000000000000000B5
:1050D000000000000000000000000000000C000EB6
:1050E000000E000F800E800E400E600E200E100E7F
:1050F000100E080E040E040EFE7F000E000E000EB1
:10510000000E000E000EC07F000000000000000036
:10511000000000000000000000000000F03FF03F31
:1051200010001000100008000800C807280C18180C
:10513000081000300030003000300C300C30041803
:105140000418080CF003000000000000000000003C
:10515000000000000000000000000000800FC010F0
:10516000203010301800180008000C008C0F6C184C
:105170003C301C600C600C600C600C6018601820E7
:1051800030306018C0070000000000000000000080
:10519000000000000000000000000000F83FF83FA1
:1051A0001C100C08040804040004000200020001A2
:1051B00000010001800080008000C000C000C0002D
:1051C000C000C000C000000000000000000000009F
:1051D000000000000000000000000000E007300CAC
:1051E00018180C300C300C301C3038187008E007E0
:1051F000B007180E0C1C0638063006300630063094
:105200000C18180CE0030000000000000000000073
:10521000000000000000000000000000E00318048F
:105220000C080C180610063006300630063006381A
:105230000C3C1836F03100300018001800180C0C27
:105240000C060C03F001000000000000000000004C
:10525000000000000000000000000000000000004E
:10526000000000000000000000008001C003C00337
:10527000800100000000000000000000000080012C
:10528000C003C00380010000000000000000000017
:10529000000000000000000000000000000000000E
:1052A00000000000000000000000C000C00000007E
:1052B00000000000000000000000000000000000EE
:1052C0000000C000C00080008000400040000000DE
:1052D0000000000000000000000000200010000896
:1052E0000004000600038001C000600030001800C8
:1052F0000C00180030006000C000800100030006B0
:105300000004000800100020000000000000000061
:10531000000000000000000000000000000000008D
:1053200000000000000000000000FE7F0000000000
:10533000000000000000FE7F0000000000000000F0
:10534000000000000000000000000000000000005D
:105350000000000000000000000004000800100031
:1053600020006000C000800100030006000C00184F
:1053700000300018000C000600038001C00060002F
:1053800020001000080004000000000000000000E1
:1053900000000000000000000000C00730180830C6
:1053A00008600C601C601C601C600030001C000663
:1053B000000180008000800080000000000080016B
:1053C000C003C003800100000000000000000000D6
:1053D000000000000000000000000000C00760188E
:1053E000103018200C2F8C4D864CC64CC64C664C89
:1053F00066446644662666266615CC1C0C4008206A
:1054000018303018C0070000000000000000000045
:10541000000000000000000000000001C001C00109
:10542000C001400160032003200320033006100662
:1054300010061006F80F080C080C080C0C0C0418C9
:10544000041806181F7C0000000000000000000087
:10545000000000000000000000000000FE07181C13
:10546000183818301830183018301818180CF80779
:105470001818183018201860186018601860186024
:1054800018301818FE0F0000000000000000000097
:10549000000000000000000000000000C02760388D
:1054A000103018200C400C400400060006000600D6
:1054B000060006000600060006000C400C400C200A
:1054C00018303018C0070000000000000000000085
:1054D000000000000000000000000000FE03180EA5
:1054E00018181830183018301860186018601860D4
:1054F000186018601860186018601830183018109C
:105500001818180EFE030000000000000000000044
:10551000000000000000000000000000FE3F183006
:10552000182018601840180018081808180CF80FF0
:10553000180C18081808180018001800184018400F
:1055400018201830FE3F000000000000000000009E
:10555000000000000000000000000000FE7F187046
:10556000184018C018801800181018101818F81FC4
:105570001818181018101800180018001800180033
:10558000180018007E00000000000000000000006D
:10559000000000000000000000000000C013701CAC
:1055A000101018100C200C20040006000600060045
:1055B0000600060006FC063006300C300C301830B1
:1055C00018303008C0070000000000000000000094
:1055D0000000000000000000000000003F7E0C18EA
:1055E0000C180C180C180C180C180C180C180C189B
:1055F000FC1F0C180C180C180C180C180C180C1894
:105600000C180C183F7E0000000000000000000095
:10561000000000000000000000000000F81F8001F2
:105620008001800180018001800180018001800172
:105630008001800180018001800180018001800162
:1056400080018001F81F0000000000000000000041
:10565000000000000000000000000000E07F0006E5
:10566000000600060006000600060006000600060A
:1056700000060006000600060006000600060006FA
:1056800000060006000600060E060E038E01FC0052
:105690000000000000000000000000007E7C1818E0
:1056A0001808180418061802180198019801D80162
:1056B000B803380318071806180E180C181C181809
:1056C000183018307EFC00000000000000000000D0
:1056D0000000000000000000000000007E00180034
:1056E00018001800180018001800180018001800FA
:1056F000180018001800180018001800184018406A
:1057000018201830FE3F00000000000000000000DC
:105710000000000000000000000000001FF81C381E
:105720001C381C381C3C3434343434343436743231
:105730006432643264326431C431C431C431C4303F
:10574000C43084309FFC0000000000000000000016
:105750000000000000000000000000001F7C1C1082
:105760003C103410341074106410E410C410C411D0
:1057700084118413041304170416041E041C041C4F
:10578000041C04181F1800000000000000000000A6
:10579000000000000000000000000000C003300C0A
:1057A000181808100C300C300660066006600660A1
:1057B000066006600660066006600C200C3008106B
:1057C0001818300CC00300000000000000000000AA
:1057D000000000000000000000000000FE0F18188C
:1057E00018301860186018601860186018301818A1
:1057F000F80F1800180018001800180018001800FA
:10580000180018007E0000000000000000000000EA
:10581000000000000000000000000000C003300C89
:1058200018180C100C300C2006600660066006602C
:1058300006600660066006600660E4612C331C3278
:105840001816300EC007004C007C00380000000025
:10585000000000000000000000000000FE07181C0F
:10586000183818301830183018301818180CF80775
:1058700098031803180718061806180E180C180CA9
:10588000181C18187E7800000000000000000000BE
:10589000000000000000000000000000E027303899
:1058A00018300C200C200C000C0018007800E003CD
:1058B000800F001E00380070006004600460086003
:1058C00018303818C80F0000000000000000000069
:1058D000000000000000000000000000FC3F8C21E0
:1058E00084618241824180018001800180018001C8
:1058F00080018001800180018001800180018001A0
:1059000080018001E00700000000000000000000AE
:105910000000000000000000000000003F7C0C10B0
:105920000C100C100C100C100C100C100C100C1097
:105930000C100C100C100C100C100C100C100C1087
:1059400008083804E0030000000000000000000028
:105950000000000000000000000000003EF81820D9
:1059600018201820301030103010301060086008F7
:105970006008E00CC004C004C004800380038003FE
:105980008003000100010000000000000000000092
:10599000000000000000000000000000DFF386614E
:1059A000862186218C210C218C238C138C138C1343
:1059B0004C1358125816580E380E380E380E300C3C
:1059C000100410041004000000000000000000009B
:1059D0000000000000000000000000007E3E1808EB
:1059E00038083004300470026002E001C001C001D8
:1059F000800180034003400720062006100C100C95
:105A0000081808183E7C000000000000000000009C
:105A10000000000000000000000000007E7C1C1060
:105A2000181018083008300C700460046002C002BE
:105A3000C002C001800180018001800180018001DD
:105A400080018001E007000000000000000000006D
:105A5000000000000000000000000000F83F1818DF
:105A60000818040C040E00060007000380038001E0
:105A7000C001C000E0006000700030003820182035
:105A80001C100C18FE1F00000000000000000000A9
:105A9000000000000000C03F400040004000400007
:105AA00040004000400040004000400040004000F6
:105AB00040004000400040004000400040004000E6
:105AC00040004000400040004000C03F0000000097
:105AD000000000000000000000000800180018008E
