:020000040800F2
:10000000B80E0020C9010008D5150008F309000842
:10001000D11500083F05000841220008000000003B
:100020000000000000000000000000008F1E00081B
:10003000910700080000000029170008A11F000810
:10004000E3010008E3010008E3010008E301000800
:10005000E3010008E3010008E3010008E3010008F0
:10006000E3010008E3010008E3010008E3010008E0
:10007000E3010008E3010008E3010008E3010008D0
:10008000E3010008E3010008E3010008E3010008C0
:10009000E3010008E3010008E3010008E3010008B0
:1000A000E3010008E3010008E3010008E3010008A0
:1000B000E301000805200008E3010008E30100084F
:1000C000E3010008E3010008E3010008E301000880
:1000D000E3010008E3010008E3010008E301000870
:1000E000E3010008E3010008E301000800F002F862
:1000F00000F05AF80AA090E8000C82448344AAF168
:100100000107DA4501D100F04FF8AFF2090EBAE865
:100110000F0013F0010F18BFFB1A43F0010318473B
:10012000CC950100EC9501000A444FF0000C10F84A
:10013000013B13F0070408BF10F8014B1D1108BF65
:1001400010F8015B641E05D010F8016B641E01F805
:10015000016BF9D113F0080F1EBF10F8014BAD1C55
:100160000C1B09D16D1E58BF01F801CBFAD505E073
:1001700014F8016B01F8016B6D1EF9D59142D6D3CD
:10018000704700000023002400250026103A28BFF5
:1001900078C1FBD8520728BF30C148BF0B607047F9
:1001A0001FB51FBD10B510BD00F084F81146FFF754
:1001B000F7FF03F0DDF800F0A2F803B4FFF7F2FF59
:1001C00003BC00F0A5F80000094880470948004733
:1001D000FEE7FEE7FEE7FEE7FEE7FEE7FEE7FEE7F7
:1001E000FEE7FEE704480549054A064B7047000054
:1001F000A51F0008ED000008B8080020B80E002078
:10020000B80A0020B80A00204FF0013C50F8042B37
:1002100051F8043B9A4221D1A2EB0C03934313EA19
:10022000CC1317D150F8042B51F8043B9A4215D146
:10023000A2EB0C03934313EACC130BD150F8042B1D
:1002400051F8043B9A4209D1A2EB0C03934313EA01
:10025000CC13DBD04FF00000704700BFD01A01BABA
:10026000B1FA81F101F0180122FA01F0CB40C1F19D
:100270002001DBB2C0B2C01A2CFA01F3D11A9143AB
:1002800011EAC311E6D1704770477047704710B547
:1002900000F008F8006810BD10B5044600F002F840
:1002A000046010BD0048704758080020004870479F
:1002B000580800207546FFF7F9FFAE46050069466D
:1002C000534620F00700854618B020B5FFF78AFF97
:1002D000BDE820404FF000064FF000074FF0000847
:1002E0004FF0000B21F00701AC46ACE8C009ACE8C8
:1002F000C009ACE8C009ACE8C0098D46704710B52C
:100300000446AFF300802046BDE81040FFF755BF1C
:1003100001491820ABBEFEE726000200704700002E
:1003200010B50121114800F0FAF800BF02210F4872
:1003300000F03FF80028F9D0012000F04DF80C49FA
:100340000880022000F048F80A490880032000F0E5
:1003500043F809490880062000F03EF80749088064
:10036000012000F039F80249088010BD0024014046
:100370002C0000202E000020300000203200002041
:1003800021B1826842F00102826003E0826822F0BB
:10039000010282607047014600208A6802F0040270
:1003A0000AB1012000E0002070470146C86C80B20D
:1003B00070470246002013680B400BB1012000E09B
:1003C00000207047014600208A6802F008020AB146
:1003D000012000E00020704710B5044602230122EE
:1003E0002146094800F03AF80121074800F097F843
:1003F00000BF02210448FFF7DCFF0028F9D00248C3
:10040000FFF7D3FF10BD00000024014030B50246C5
:100410000020002350680F4C20400D790C6844EAFE
:1004200005242043506090680B4C2040D1E90254D1
:100430002C434D7944EA450420439060D06A20F46F
:1004400070000C7C641EE4B2234340EA0350D06287
:1004500030BD0000FFFEF0FFFDF7F1FFF0B50446F0
:100460000D4600200021092D11DDE068A5F10A06E6
:1004700006EB4607072606FA07F18843A5F10A06A8
:1004800006EB460603FA06F10843E0600CE020693B
:1004900005EB4507072606FA07F1884305EB4506F5
:1004A00003FA06F108432061072A0FDA606B561E33
:1004B00006EB86071F2606FA07F18843561E06EB51
:1004C000860605FA06F10843606322E00D2A0FDA7A
:1004D000206BD61F06EB86071F2606FA07F1884316
:1004E000D61F06EB860605FA06F10843206310E0E6
:1004F000E06AA2F10D0606EB86071F2606FA07F151
:100500008843A2F10D0606EB860605FA06F10843BC
:10051000E062F0BD816841F008018160704721B15F
:10052000826842F4A002826003E0826822F4A002A2
:1005300082607047816841F004018160704700BFAC
:10054000FEE7000000F0805111B10349086001E0AE
:100550000249486070470000040402400000024065
:1005600021B1026842F00102026004E002684FF625
:10057000FE731A400260704701684FF6FE72114028
:1005800001600021016041608160C1604B49884287
:1005900008D14A490839496841F00F01474A083AE9
:1005A00051608AE045491431884208D143490839ED
:1005B000496841F0F001414A083A51607DE03F4905
:1005C0002831884208D13D490839496841F47061B1
:1005D0003A4A083A516070E038493C31884208D1C3
:1005E00036490839496841F47041344A083A516043
:1005F00063E032495031884208D1304908394968AE
:1006000041F470212D4A083A516056E02B4964317B
:10061000884208D129490839496841F47001274ABC
:10062000083A516049E025497831884208D1234988
:100630000839496841F07061204A083A51603CE04D
:100640001F49884206D1011F096841F00F01021FAE
:10065000116032E01A491431884208D11849091F43
:10066000096841F0F001164A121F116025E0144993
:100670002831884208D11249091F096841F4706184
:100680000F4A121F116018E00D493C31884208D111
:100690000B49091F096841F47041094A121F116092
:1006A0000BE007495031884207D10549091F096805
:1006B00041F47021024A121F116070470800024085
:1006C0000804024001460020002201F0805313B1CB
:1006D000054B1A6801E0054B1A6802EA01030BB1E9
:1006E000012000E0002070470004024000000240AA
:1006F00010B50022026847F6F0739A430C6A8B68C3
:1007000023430C6923434C6923438C692343CC69FD
:1007100023434C6A23438C6A23431A430260CB6809
:1007200043600B6883604B68C36010BD00B58BB03D
:100730000121084601F006F81148FFF71DFF114896
:100740000090114801900020029014200390002096
:1007500004908020059040000690800007902020A3
:1007600008900002099000200A9069460448FFF7AB
:10077000BFFF01210248FFF7F3FE0BB000BD0000F0
:10078000080002404C2401400004002041607047F2
:1007900070472DE9F04706460F46904699460025DA
:1007A000444641E07A1B11B2321B10B24A4600F0B7
:1007B000D5F97A1B11B2321910B24A4600F0CEF9BF
:1007C0003A1911B2721B10B24A4600F0C7F93A1B2F
:1007D00011B2721B10B24A4600F0C0F97A1911B278
:1007E000321910B24A4600F0B9F93A1B11B2721927
:1007F00010B24A4600F0B2F93A1911B2721910B2A9
:100800004A4600F0ABF97A1911B2321B10B24A46CF
:1008100000F0A4F96D1C05FB05F004FB040108FBC6
:1008200008F0814200DD641EA542BBDDBDE8F08713
:100830002DE9F04102460025002600200023002477
:10084000002791F803C00CF00F0591F803C00CF0DD
:10085000100CBCF1000F03D091F802C04CEA050562
:1008600091F800C0BCF1000F31D0146800202BE0DB
:100870004FF0010C0CFA00F3B1F800C00CEA0306CB
:100880009E4220D183004FF00F0C0CFA03F7BC43BB
:1008900005FA03FC4CEA040491F803C0BCF1280FEC
:1008A00006D14FF0010C0CFA00FCC2F814C00AE0AB
:1008B00091F803C0BCF1480F05D14FF0010C0CFAC0
:1008C00000FCC2F810C0401C0828D1D31460B1F855
:1008D00000C0BCF1FF0F34DD546800202EE000F1B1
:1008E000080C4FF0010808FA0CF3B1F800C00CEA4C
:1008F00003069E4221D183004FF00F0C0CFA03F740
:10090000BC4305FA03FC4CEA040491F803C0BCF1B3
:10091000280F05D100F1080C08FA0CF8C2F8148071
:1009200091F803C0BCF1480F07D100F1080C4FF05B
:10093000010808FA0CF8C2F81080401C0828CED331
:100940005460BDE8F0810000F0B50A4600230024A1
:100950000021002500F00046B6F1004F02D11D4EE7
:10096000F16901E01B4E7168C0F3034583B200F4E6
:100970004016B6F5401F08D121F07061154E76681B
:1009800026F07066134F7E6012E000F48016B6F514
:10099000801F06D1032606FA05F4A14341F07061D9
:1009A00006E0460D360103FA06F6B14341F07061E8
:1009B00022B1460D360103FA06F6314300F0004637
:1009C000B6F1004F02D1034EF16101E0014E7160BA
:1009D000F0BD0000000001400246002093680B407B
:1009E0000BB1012000E000207047416170470161B8
:1009F000704700BFFEE7000008B50121084600F07F
:100A0000C1FE01211848FFF79FFF01211C2000F0C3
:100A1000B9FE0120ADF8000028208DF803006946DA
:100A20001248FFF705FF4FF41940ADF800004820C9
:100A30008DF8030069460D48FFF7FAFEC820ADF8AF
:100A4000000048208DF8030069460948FFF7F0FED2
:100A50004FF44040ADF8000048208DF8030069468F
:100A60000448FFF7E5FE08BD000230000008014021
:100A7000000C0140001001402DE9F04107460C46F2
:100A800015461E462A2000F07BFB384600F069FB25
:100A9000284600F066FB2B2000F072FB04F11401E5
:100AA00088B200F05EFB06F1140188B200F059FB39
:100AB0002C2000F065FBBDE8F0812DE9FF4F83B0ED
:100AC00081464FF0000AD3460598A0EB090504992A
:100AD0000698461ACDF8049004980090002D01DD88
:100AE000012705E00DB9002702E04FF0FF376D4206
:100AF000002E02DD4FF0010806E016B94FF00008A5
:100B000002E04FF0FF387642B54201DD2C4600E0AE
:100B10003446002002901AE0009801B2019800B219
:100B2000109A00F01BF8AA44B344A24504DDAAEBD6
:100B3000040A019838440190A34504DDABEB040B93
:100B40000098404400900298401C80B20290611CC2
:100B500002988842E0DB07B0BDE8F08F2DE9F04154
:100B600004460D461646ABB2A2B2A9B2A0B2FFF738
:100B700083FF304600F0F5FABDE8F0812DE9F84F2B
:100B80000746884614461D46DDF828904FF0010AB6
:100B9000CDF80090E01BA5EB080100FB01F6681EF4
:100BA00083B2601E82B241463846FFF765FF1021CE
:100BB0002748FFF71AFF2748008840F400602549BE
:100BC00008800121234801F0C1F826E04FF6FE70AD
:100BD000864202D9361A834602E04FF0000AB34635
:100BE0001FFA8BF36A461B490C311B4800F0ACFC22
:100BF00001220221174801F0B5F8174800F0D4FC93
:100C000009E04FF40070FFF75DFD20B14FF4007074
:100C1000FFF798FC00E0F4E700BFBAF1000FD5D170
:100C200010210B48FFF7E3FE0A480088C04309493A
:100C300008800846008840F4006008800846008864
:100C4000C04308800121034801F080F8BDE8F88F17
:100C500000080140003001403000024010B500F0B3
:100C6000FDFC01215F48FFF7C0FE642002F030F96F
:100C700001215C48FFF7BBFE642002F029F9112036
:100C800000F07EFA782002F023F9362000F078FA9E
:100C9000C02000F06FFA3A2000F072FA052000F050
:100CA00069FAB22000F06CFA0C2000F063FA0C2014
:100CB00000F060FA002000F05DFA332000F05AFAEC
:100CC000332000F057FAB72000F05AFA352000F030
:100CD00051FABB2000F054FA322000F04BFAC22047
:100CE00000F04EFA012000F045FAC32000F048FA67
:100CF000152000F03FFAC42000F042FA202000F056
:100D000039FAC62000F03CFA0F2000F033FAD02068
:100D100000F036FAA42000F02DFAA12000F02AFA03
:100D2000E02000F02DFAD02000F024FA082000F096
:100D300021FA0E2000F01EFA092000F01BFA09200B
:100D400000F018FA052000F015FA312000F012FA30
:100D5000332000F00FFA482000F00CFA172000F0C2
:100D600009FA142000F006FA152000F003FA3120E9
:100D700000F000FA342000F0FDF9E12000F000FA64
:100D8000D02000F0F7F9082000F0F4F90E2000F070
:100D9000F1F9092000F0EEF9092000F0EBF9152037
:100DA00000F0E8F9312000F0E5F9332000F0E2F935
:100DB000482000F0DFF9172000F0DCF9142000F0E3
:100DC000D9F9152000F0D6F9312000F0D3F93420FC
:100DD00000F0D0F9212000F0D3F9292000F0D0F95B
:100DE00010BD0000000C01402DE9FF5F0746894659
:100DF00090469B460F9D002002900097284605EBE9
:100E0000D071C1F347042046E21704EB5272D210AE
:100E10002146E31704EB5373DB10A4EBC3030BB1C0
:100E2000012300E000231A446A4392B20192A8F120
:100E3000200000F0FF0809EB0500401E83B23819BE
:100E4000401E82B249463846FFF716FE002666E08D
:100E50000C2D07D108EB4800334901EB8000805D81
:100E600003901BE0102D05D1304800EB0810805D89
:100E7000039013E0182D07D108EB48002C4901EB33
:100E80000010805D039009E0202D05D1294800EB7A
:100E90008810805D039001E0BDE8FF9F4FF0000ADD
:100EA00037E01098C8B9012000FA0AF00399084009
:100EB00018B1584600F055F902E00E9800F051F9CB
:100EC0000298401CC0B20290029890FBF4F104FB1F
:100ED0001100D0B9002002901EE0012000FA0AF0B3
:100EE0000399084028B15A460FFA89F138B2FFF742
:100EF00035FE781C87B20098381AA04205D1009FB1
:100F000009F101001FFA80F906E00AF1010000F082
:100F1000FF0ABAF1080FC4DB00BF701C86B201984B
:100F2000864295DB00BFB7E730510008A4550008A2
:100F3000945B0008646D00082DE9FF4F85B00746FB
:100F400090461C46DDE91396304606EBD071C1F39E
:100F5000470B2149404603F013FC039003F0DCFBF0
:100F600080B20490002531E0601B401EC1B20A200F
:100F700002F06CFA0499B1FBF0F00A21B0FBF1F237
:100F800001FB120AA01EA84210D10020A11E01FBE5
:100F90000B71CDE90096029088B22E22129B069921
:100FA000FFF722FF681CC5B2601CC4B200200AF122
:100FB0003001CAB205FB0B71CDE90096029088B2F0
:100FC000129B0699FFF710FF681CC5B2A542CBDB48
:100FD00009B0BDE8F08F00000000C8422DE9FF4FC6
:100FE00085B0074691461D46DDE913A60020049012
:100FF000304606EBD071C1F3470B002434E0281BC8
:10100000401EC1B20A2002F021FAB9FBF0F00A2119
:10101000B0FBF1F201FB12080498A0B9681EA042CF
:1010200011DDB8F1000F0CD1002004FB0B71CDE9EC
:1010300000A6029088B22022129B0699FFF7D4FEE8
:1010400010E001200490002008F13001CAB204FB36
:101050000B71CDE900A6029088B2129B0699FFF7AA
:10106000C3FE00BF601CC4B2AC42C8DB09B0BDE81F
:10107000F08F00002DE9F05F0746884614461D46B4
:10108000DDF828904FF0010A04FB05F0460008EB5C
:101090000500401E83B23819401E82B241463846D0
:1010A000FFF7EAFC10211B48FFF79FFC29E04FF6F1
:1010B000FE70864202D9361A834602E04FF0000ADB
:1010C000B3461FFA8BF34A461349144800F00EFA50
:1010D0000122022110480C3800F044FE0F4800F0B5
:1010E00063FA09E04FF40070FFF7ECFA20B14FF417
:1010F0000070FFF727FA00E0F4E700BF4FF6FE703C
:101100008144BAF1000FD2D110210248FFF76FFCE1
:10111000BDE8F09F000801400C3001403000024063
:101120002DE9FE4F06460F4614469846DDE90D5A56
:10113000DDF8309010E0CDE9015ACDF8009022782A
:10114000434639463046FFF74FFE284605EBD0713F
:1011500006EB61018EB2641C20780028EBD1BDE85B
:10116000FE8F10B50446201200F01AF8E0B200F02D
:1011700017F810BD10B50446204600F011F810BD58
:1011800010B5044602210548FFF72FFC204600F069
:1011900007F802210148FFF72AFC10BD000C0140AE
:1011A00010B5044610210B48FFF71FFC00BF0221B9
:1011B000094800F0E0FD0028F9D02146064800F07B
:1011C000E6FD012001F05CFE10210248FFF70FFC54
:1011D00010BD000000080140003001402DE9F0473B
:1011E00006460F4614461D46DDF820A04FF00008C5
:1011F000C146301B0FFA80F8781B0FFA80F952466F
:10120000781C01B230B2FFF7A9FC781E01B2524639
:1012100030B2FFF7A3FC711E08B2524639B2FFF795
:101220009DFC524639B2701C00B2FFF797FCA11B1F
:10123000002901DB0A4600E04A42012A4FD1E81B9F
:10124000002801DB024600E04242012A47D1B8F102
:10125000000F11DAB9F1000F0EDA4FF6FF72681CB9
:1012600001B220B2FFF77AFC4FF6FF7229B2601C80
:1012700000B2FFF773FCC8E0B8F1000F0EDA681E89
:1012800001B24FF6FF7220B2FFF768FC4FF6FF7213
:1012900029B2601C00B2FFF761FCB6E0B9F1000FA3
:1012A0000EDA4FF6FF72681C01B220B2FFF756FC4F
:1012B000611E08B24FF6FF7229B2FFF74FFCA4E09F
:1012C000681E01B24FF6FF7220B2FFF747FC611EA5
:1012D00008B24FF6FF7229B2FFF740FC95E0B8F173
:1012E000000001DB014600E04142022931D1B9F1A1
:1012F000000F2ED1B8F1000F15DD4FF6FF72681CFC
:1013000001B220B2FFF72AFC681E01B24FF6FF724D
:1013100020B2FFF723FC611E08B24FF6FF7229B21C
:10132000FFF71CFC71E04FF6FF72681C01B220B29F
:10133000FFF714FC681E01B24FF6FF7220B2FFF7F0
:101340000DFC4FF6FF7229B2601C00B2FFF706FCDD
:101350005BE0B9F1000001DB014600E041420229F7
:1013600031D1B8F1000F2ED1B9F1000F15DD4FF6D4
:10137000FF7229B2601C00B2FFF7F0FB611E08B2D9
:101380004FF6FF7229B2FFF7E9FB681E01B24FF674
:10139000FF7220B2FFF7E2FB37E04FF6FF7229B28F
:1013A000601C00B2FFF7DAFB611E08B24FF6FF7255
:1013B00029B2FFF7D3FB4FF6FF72681C01B220B2CF
:1013C000FFF7CCFB21E0B8F1000F02D1B9F1000F1B
:1013D0001BD04FF6FF72681C01B220B2FFF7BEFBB4
:1013E000681E01B24FF6FF7220B2FFF7B7FB611E15
:1013F00008B24FF6FF7229B2FFF7B0FB4FF6FF724B
:1014000029B2601C00B2FFF7A9FBBDE8F08700001D
:1014100008B50121084600F0B5F901210C48FFF795
:1014200093FA0121082000F0ADF93020ADF800005A
:1014300010208DF8030001208DF802006946054850
:10144000FFF7F6F930210348FFF7CFFA08BD000097
:1014500000013000000C014000B587B001214802B6
:1014600000F090F90121042000F08CF94FF40040C5
:1014700000F05CF900208DF807004E20ADF8040064
:1014800003208DF8060001A91648FFF7D1F90020C6
:10149000029005904FF46020049000208DF80D001C
:1014A0008DF80C0001208DF8180002A90E48FEF7F7
:1014B000ADFF01210C48FEF763FF0B48FFF72AF848
:1014C00000BF0948FEF77EFF0128FAD00648FFF763
:1014D00031F800BF0448FEF75EFF0128FAD007B0DC
:1014E00000BD000000080140002401402DE9F0414A
:1014F00007460D4616461C460121084600F022F913
:101500003846FFF739F80E4804800E4805604660FB
:1015100010200C4988600846C460002008618020C3
:10152000486100208861C86108624FF480504862B9
:10153000002088623846FFF7DBF8BDE8F081000044
:1015400034000020280400202DE9F04107460D4614
:1015500016461C460121084600F0F4F83846FFF70D
:101560000BF80F4804800F480560466010200D49B5
:1015700088600846C4600020086148614FF48070AC
:1015800088618000C861002008624FF48050486282
:10159000002088623846FFF7ABF8BDE8F081000014
:1015A000340000202804002010B504460021204605
:1015B000FEF7D6FF044801880448FFF7E7F8012149
:1015C0002046FEF7CDFF10BD340000203000024061
:1015D00000BFFEE77047000070B5002100230F2216
:1015E000C47804B3154C246804F4E064C4F5E064E2
:1015F000210AC1F10403CA40447804FA03F1847853
:101600001440214309010E4C0678A155047804F0DA
:101610001F050124AC4005786D11AD0005F1E025F2
:10162000C5F8004109E0047804F01F050124AC402E
:10163000044D0678761145F8264070BD0CED00E0AB
:1016400000E400E080E100E002490143024A116049
:10165000704700000000FA050CED00E000B587B00F
:10166000012141F20C0000F08DF80320ADF80400D8
:1016700010208DF8070003208DF8060001A92748E7
:10168000FFF7D6F803212548FFF7B1F92020ADF880
:10169000040003208DF8060018208DF8070001A92A
:1016A0001F48FFF7C5F88020ADF8040001A91C48C9
:1016B000FFF7BEF81020ADF804008DF8070001A96F
:1016C0001748FFF7B5F810211548FFF790F90020EB
:1016D000ADF808004FF48270ADF80A000020ADF8B4
:1016E0000C000220ADF80E000120ADF81000400201
:1016F000ADF812000820ADF814000020ADF8160077
:101700000720ADF8180002A9064800F042FB0121AD
:10171000044800F01BFB07B000BD0000000C0140B6
:1017200000080140003001407047000001460020E1
:10173000034A506820F4404008435060704700005E
:101740000010024029B1064A52690243044B5A6113
:1017500004E0034A52698243014B5A61704700001A
:101760000010024029B1064AD2690243044BDA61F3
:1017700004E0034AD2698243014BDA6170470000FA
:101780000010024029B1064A92690243044B9A6153
:1017900004E0034A92698243014B9A61704700005A
:1017A000001002406C48006828B900206B4908709E
:1017B0006B4908700BE069480078401C6749087065
:1017C00008460078082802DD012065490870654850
:1017D000006828B1002064490870614948700BE036
:1017E00061480078401C6049087008460078082865
:1017F00002DD01205A49487057482C30006828B152
:1018000000205A490870564988700BE05748007804
:10181000401C5649087008460078082802DD01205F
:101820004F4988704C483030006828B1002050493A
:1018300008704B49C8700BE04D480078401C4C497B
:10184000087008460078082802DD01204449C87065
:1018500041483C30006828B10020464908704049A2
:1018600008710BE043480078401C42490870084664
:101870000078082802DD0120394908713E480068D7
:1018800028B100203D490870354948710BE03B48BC
:101890000078401C3949087008460078082802DDA5
:1018A00001202F49487134480C30006828B10020CD
:1018B000334908702A4988710BE031480078401C90
:1018C0002F49087008460078082802DD01202449C5
:1018D000887129481030006828B100202949087013
:1018E0001F49C8710BE027480078401C2549087043
:1018F00008460078082802DD01201949C8711648F9
:101900002030006828B100201F490870144908726F
:101910000BE01D480078401C1B4908700846007801
:10192000082802DD01200E4908720E48001D0068DB
:1019300028B1002015490870094948720BE0134886
:101940000078401C1149087008460078082802DD1C
:101950000120034948727047000121420A0000201B
:10196000F4030020380122420B0000200C0000206C
:101970000D0000200E0000200C8121420F000020ED
:10198000100000201100002014000020150000208D
:1019900000B587B001210820FFF7F4FE012188037C
:1019A000FFF7E0FE4FF46040ADF8180018208DF806
:1019B0001B0001208DF81A0006A92848FEF738FF01
:1019C00010208DF81B004FF4A050ADF8180006A9A8
:1019D0002248FEF72DFF04208DF81B004002ADF8D1
:1019E000180006A91D48FEF723FF1820ADF81000C7
:1019F0000020ADF80A00ADF80C00ADF80800ADF815
:101A000012004FF40070ADF80E000020ADF8040095
:101A10000720ADF814004FF48270ADF8060001A95C
:101A20000F4800F0B6F901210D4800F08FF94FF48E
:101A300000510A48FEF7D9FF4FF480610748FEF7CE
:101A4000D6FF4FF480510548FEF7CFFF4FF4004119
:101A50000248FEF7CAFF07B000BD0000000C0140BD
:101A6000003800401CB5044603208DF800000A2011
:101A70008DF8010001208DF802003C208DF8030054
:101A800011208DF8040027208DF8050001208DF825
:101A900007000F208DF806004FF480512348FEF711
:101AA000A4FF9DF80010232000F002F9A4B99DF8CE
:101AB00001102031C8B205221D4900F0D7F89DF869
:101AC0000210222000F0F4F89DF804102031C8B272
:101AD000202100F0EDF809E005221549302000F042
:101AE000C5F89DF807103D2000F0E2F89DF80310BE
:101AF000252000F0DDF89DF80510262000F0D8F82C
:101B00003CB99DF8060040F00101202000F0D0F81B
:101B100006E09DF8060000F0FE01202000F0C8F865
:101B20004FF480510148FEF762FF1CBD000C0140DC
:101B3000CC9501082DE9F04107460D4616464FF4B5
:101B400080610C48FEF751FF384600F041F98046AD
:101B5000002405E0002000F03BF92855601CC4B2C9
:101B6000B442F7DB4FF480610248FEF740FF404685
:101B7000BDE8F081000C014070B504464FF480616F
:101B80000848FEF732FF204600F022F9002000F05E
:101B90001FF905464FF480610248FEF728FF2846EA
:101BA00070BD0000000C014070B504460720FFF72F
:101BB000E3FF05462946272000F07AF805F04000AB
:101BC00070B16020FFF7D8FF0646324621466120FB
:101BD000FFF7B0FFFF21E22000F06AF8012070BD9E
:101BE0000020FCE770B505464FF480511D48FEF714
:101BF000FCFE20222946A02000F038F84FF4805146
:101C00001848FEF7F4FE4FF48030174908600AE0E8
:101C100015490868411E144A116020B9002000F0DF
:101C200033F9C0B270BD4FF400610E48FEF7D4FE28
:101C30000028EDD10720FFF79FFF0446214627200B
:101C400000F036F804F0100028B1FF21E12000F088
:101C50002FF81020E6E704F0200008B12020E1E78B
:101C60002046DFE7000C0140740300202DE9F0411D
:101C700007460C4615464FF480610C48FEF7B5FE4A
:101C8000384600F0A5F88046002605E014F8010B60
:101C900000F09EF8701CC6B2AE42F7DB4FF48061D4
:101CA0000248FEF7A4FE4046BDE8F081000C01406A
:101CB00070B505460C464FF480610848FEF795FE66
:101CC000284600F085F80646204600F081F84FF4DB
:101CD00080610248FEF78BFE304670BD000C01406B
:101CE0001CB511A103C9CDE900010024082000F0B2
:101CF0001FF8052269463020FFF7B8FF0522694624
:101D00001020FFF717FF06E01DF80400662800D03A
:101D100003E0601CC4B2052CF6DB00BF052C01D02B
:101D200001201CBD0020FCE76666666666000000B8
:101D3000054909884FF6C7721140034A11801146C0
:101D400009880143118070470038004021B10288A2
:101D500042F04002028004E002884FF6BF731A404E
:101D6000028070471AB183880B43838002E0838826
:101D70008B43838070470246002013890B400BB1D0
:101D8000012000E00020704701468889704781816A
:101D9000704710B50022028802F441520B884C882B
:101DA00023438C882343CC8823430C8923434C89C9
:101DB00023438C892343CC8923431A430280838B9A
:101DC0004FF2FF74234083830B8A038210BD00000F
:101DD00070B504464FF48030294908600AE028496C
:101DE0000868411E264A116020B9012000F04CF815
:101DF000C0B270BD02212348FFF7BDFF0028EED01E
:101E000021462048FFF7C3FF0AE01D490868411E2C
:101E10001B4A116020B9022000F036F8C0B2E8E792
:101E200001211848FFF7A7FF0028EED01548FFF75B
:101E3000ABFFC5B20AE012490868411E104A1160A2
:101E400020B9032000F020F8C0B2D2E702210D48EB
:101E5000FFF791FF0028EED00AE009490868411E0B
:101E6000074A116020B9042000F00EF8C0B2C0E7A4
:101E700080210448FFF77FFF0128EED02846B8E70D
:101E8000740300200038004001460020704770476E
:101E900010B500F001F810BD0CB5002001900090C5
:101EA0003348006840F480303149086000BF304852
:101EB000006800F4003000900198401C01900098E8
:101EC00018B90198B0F5A06FF1D12948006800F465
:101ED000003010B10120009001E000200090009837
:101EE000012843D12348006840F0100021490860D0
:101EF0000846006820F0030008600846006840F0CB
:101F0000020008601A48406819494860084640685D
:101F100048600846406840F4806048600846406871
:101F200020F47C1048600846406840F4E81048609F
:101F30000846006840F08070086000BF0C480068E8
:101F400000F000700028F9D00948406820F0030034
:101F5000074948600846406840F00200486000BFFA
:101F60000348406800F00C000828F9D10CBD0000BF
:101F70000010024000200240042808D14FF0E02168
:101F8000096941F004014FF0E022116107E04FF0D0
:101F9000E021096921F004014FF0E022116170474E
:101FA0007047000010B51348006840F00100114967
:101FB000086008464068104908400E4948600846D5
:101FC00000680E4908400B4908600846006820F484
:101FD000802008600846406820F4FE0048604FF406
:101FE0001F008860FFF754FF4FF00060044908604D
:101FF00010BD0000001002400000FFF8FFFFF6FED9
:1020000008ED00E010B501210C4800F05CF8A0B12B
:1020100001210A4800F048F80120094908700948E0
:102020000088401C0749088008460088322804DBE5
:102030000020088001200449087010BD0004004001
:102040000200002000000020030000201FB5012135
:102050000220FFF787FB40F2E730ADF80800472089
:10206000ADF804000020ADF80A00ADF8060001A9A3
:102070000C4800F043F8012211460A4800F034F8F9
:102080001D208DF8000001208DF801008DF8020060
:102090008DF803006846FFF79FFA0121014800F020
:1020A00006F81FBD00040040CA430282704721B1F8
:1020B000028842F00102028004E002884FF6FE73BB
:1020C0001A400280704730B50246002000230024E9
:1020D000158A05EA0103958905EA010413B10CB1DB
:1020E000012000E0002030BD1AB183890B438381B9
:1020F00002E083898B4383817047000000220288BD
:102100001D4B98420ED01D4B98420BD0B0F1804F22
:1021100008D01B4B984205D01A4B984202D01A4B5C
:10212000984204D14FF68F731A404B881A43174BCD
:10213000984207D0164B984204D04FF6FF431A40FE
:10214000CB881A4302808B8883850B8803850A4BD2
:1021500098420BD0094B984208D00E4B984205D0BC
:102160000D4B984202D00D4B984201D10B7A038659
:102170000123838270470000002C0140003401409D
:102180000004004000080040000C00400010004027
:10219000001400400040014000440140004801405C
:1021A00070B504460D462560A280E380042626848F
:1021B0006684A688208C301A401E06B2A684E68863
:1021C000208C301A401E06B2E684A08CA083E68CD8
:1021D000E683012084F8400084F841000020E0629A
:1021E0000026A6866686E6862687E66345F65D4077
:1021F0001034E0864FF6FF7060860020A0862060D5
:102200006060A060103C002109E0002604F14C0051
:1022100040F8316000EBC1000671481CC1B20329CF
:10222000F3DB02480460012070BD0000380000208C
:10223000014602480160012070470000380000207C
:1022400000BFFEE72DE9F04F8BB000BF00BF00BF1D
:1022500000BF00BF00BFC448008840F63C71884200
:1022600003DB481EC049088008E0BF480088B0F57D
:10227000967F03DC40F22D10BB490880BB480088E4
:1022800040F63C71884203DB481EB849088008E0EC
:10229000B6480088B0F5967F03DC40F22D10B349B4
:1022A0000880B348008840F63C71884203DB481E32
:1022B000AF49088008E0AE480088B0F5967F03DC9F
:1022C00040F22D10AA490880AA48008840F63C71C7
:1022D000884203DB481EA749088008E0A54800881B
:1022E000B0F5967F03DC40F22D10A2490880A24889
:1022F000C079D0B99D480088A0F5967096214843D2
:102300004FF4616190FBF1F01FFA80FA9848008861
:10231000A0F5967000EB400101EBC0004FF4616145
:1023200090FBF1F01FFA80FB19E092480088A0F5BD
:102330009670962148434FF4616190FBF1F01FFACB
:1023400080FA89480088A0F5967000EB400101EB07
:10235000C0004FF4616190FBF1F01FFA80FB002098
:1023600020214FF6FF7247F67C53CDE90021029001
:1023700082A20A20FEF7D4FE20204FF6FF7148F219
:102380001F420323CDE900210290524601466A20F4
:10239000FEF724FE002020214FF6FF7247F67C5303
:1023A000CDE90021029077A240210A20FEF7B8FE75
:1023B00020204FF6FF7148F21F420323CDE9002190
:1023C00002905A4640214A20FEF708FE1F2332227F
:1023D000E6211046FEF7DDF91F233222E621BE205A
:1023E000FEF7D7F960480088A0F634003221484350
:1023F0004FF4E16190FBF1F0323084B25B4909881F
:10240000A1F6340001F011FECDE90401A4F132017E
:102410000A4640F6C41301FB123001F006FECDE976
:10242000000101F035FBCDE90201DDE9042301F0F3
:1024300063FE07460022554B01F036FC0022544B48
:10244000CDE9060101F08CFFCDE9080101F0C0FDE6
:1024500086B247480088A0F63400322148434FF442
:10246000E16190FBF1F0BE3085B242490988A1F6E6
:10247000340001F0DAFDCDE90201A5F1BE010A4602
:1024800040F6C41301FB123001F0CFFDCDE900018D
:1024900001F0FEFA0746DDE9022301F02DFE0022DD
:1024A0003A4BCDE9040101F0FFFB0022384BCDE9A6
:1024B000060101F055FFCDE9080101F089FD1FFA81
:1024C00080F9022C01DA022402E0622C00DD622491
:1024D000B62E01DAB62604E0B6F58B7F01DD4FF4A7
:1024E0008B768E2D01DA8E2502E0EE2D00DDEE25B5
:1024F000B9F1B60F02DA4FF0B60904E0B9F58B7FF7
:1025000001DD4FF48B794FF4784000902148038827
:102510002148028831462046FEF760FE4FF478409D
:1025200000901E4803881E48028849462846FEF748
:1025300055FE194804801748068019480580174839
:10254000A0F800901748007801280AD1002015490A
:1025500008700022134601211120CDE900AB00F0E4
:10256000FFFB0BB0BDE8F08F2C0000202E000020F8
:102570003000002032000020F40300205370656515
:10258000643A00004449523A0000000000209C4098
:1025900000C06C406A030020680300206E03002026
:1025A0006C0300200300002030B5642A03DA002306
:1025B00003700A701CE042F210739A4209DA642335
:1025C00092FBF3F303700378642404FB13230B7072
:1025D0000EE0642392FBF3F3642493FBF4F504FB15
:1025E00015330370642392FBF3F403FB14230B7085
:1025F00030BD00002DE9FE4F8246002018214FF625
:10260000FF72CDE9002102900AEB4A00FE4901EB7E
:102610008000407900EB400001EB80000023194668
:1026200082682820FEF77CFDF84903C901F056FABC
:10263000044618204FF6FF7147F67C520523CDE97A
:1026400000210290224600217020FEF775FCF04820
:10265000EE490CC803C901F07FFC0ED100201821FF
:102660004FF6FF724FF6E073CDE900210290E9A228
:102670001A214E20FEF754FD0DE0002018214FF6E0
:10268000FF724FF47843CDE900210290E3A21A21B2
:102690004E20FEF745FDE3480078504524D0002049
:1026A00000900246034601460190504600F058FB58
:1026B000DD49487901F0D0FC0646DC4ADC4B01F0EC
:1026C0001BFD04460D46D849087901F0C5FC80463B
:1026D00022462B4601F034FACD4A03C2CC48D0E959
:1026E0000010CA4AC2E90010CE4880F800A0D148C4
:1026F000008840F6E441884209DDCF48008814286C
:1027000005DACD480088401CCB4908801CE0C94848
:102710000088B0F5617F09DAC7480088002805DD28
:10272000C5480088401EC44908800DE0C1480088A3
:10273000B0F5617F08DBBF48008840F6E44188427D
:1027400002DC0A20BC490880BB480088142859D103
:10275000B848008840F6E441884253DD0F20B6496E
:102760000880B648007878B90022B54BA74903C95C
:1027700001F086FC08D20022B24BA44903C901F043
:10278000DFF9A24A03C297E0AC48007801280FD1D4
:102790000022AD4B9D4903C901F072FC08D2002212
:1027A000AA4B9A4903C901F0CBF9984A03C283E0C6
:1027B000A2480078022810D14FF03332A44B93493D
:1027C00003C901F05DFC08D2A24AA34B8F4903C99B
:1027D00001F0B6F98D4A03C26EE0984800780328EC
:1027E0006AD19E4A9A4BB833884903C901F048FC24
:1027F00062D28E4A8E4B854903C901F0A1F9834A02
:1028000003C259E08C480088002855D189480088C7
:10281000B0F5617F50DA0520874908808748007845
:1028200078B90022874B794903C901F063FD08D2CA
:102830000022844B754903C901F084FE734A03C228
:102840003AE07E48007801280FD100227F4B6F4983
:1028500003C901F04FFD08D200227C4B6B4903C92C
:1028600001F070FE694A03C226E07448007802282D
:102870000FD1784A784B654903C901F03BFD08D276
:10288000744A754B614903C901F05CFE5F4A03C29B
:1028900012E06A48007803280ED1644A644B5B4911
:1028A00003C901F027FD07D2604A614B574903C9AC
:1028B00001F048FE554A03C200206423C82219468D
:1028C00000902820FEF7F9F800206423C922652132
:1028D00000902820FEF7F1F856480088A0F6340052
:1028E00000EB800000014FF4E16190FBF1F040B299
:1028F0005B49087091F9001001F178004FF47842BB
:102900006121FEF72BF9564991F9001001F1780089
:102910004FF478426221FEF721F9514991F90010F4
:1029200001F178004FF478426321FEF717F94C4922
:1029300091F9001001F178004FF478426621FEF71A
:102940000DF9474991F9001001F178004FF47842F0
:102950006721FEF703F9424991F9001001F178006F
:102960004FF478426821FEF7F9F83E4890F90000EC
:102970003B4991F9001088423BD03A4991F9001047
:1029800001F178004FF6FF726121FEF7E7F8354953
:1029900091F9001001F178004FF6FF726221FEF705
:1029A000DDF8304991F9001001F178004FF6FF721F
:1029B0006321FEF7D3F82B4991F9001001F178005B
:1029C0004FF6FF726621FEF7C9F8264991F900100B
:1029D00001F178004FF6FF726721FEF7BFF8214939
:1029E00091F9001001F178004FF6FF726821FEF7AF
:1029F000B5F81B4890F900001A4908701A48008879
:102A000040F6E441884231E04800002050030020B5
:102A1000580300202053617665642000556E736171
:102A20007665640063030020380800207B14AE47FD
:102A3000E17A843F3000002060030020660300201C
:102A400000F08E400000244000388F400000F03F2E
:102A5000333F8F409A9999999999B93F52B81E85F9
:102A600064030020650300202C00002013DDB6481D
:102A7000007880B9B5480078032805DAB3480078B3
:102A8000401CB249087002E00020B04908700120E3
:102A9000AD49087029E0AE480088B0F5617F13DACF
:102AA000A948007880B9A9480078002805DDA74822
:102AB0000078401EA549087002E00320A349087071
:102AC0000120A149087010E0A1480088B0F5617F9D
:102AD0000BDB9F48008840F6E441884205DC9A48B9
:102AE000007810B10020984908709848007830B1FB
:102AF000012845D002287CD0032840D1C4E0002022
:102B00002021CDE900014FF6FF734122C821029038
:102B10001620FEF769F9002020214FF6FF720346C8
:102B2000CDE9002102904222C8214C20FEF75CF939
:102B3000002020214FF6FF720346CDE900210290CC
:102B40002E22C8216420FEF74FF9002020214FF6E5
:102B5000FF720346CDE9002102904322C821822062
:102B6000FEF742F9002020214FF6FF720346CDE91F
:102B7000002102904422C821B820FEF735F9C4E0B4
:102B8000002020214FF6FF720346CDE9002102907C
:102B90004122C8211620FEF727F900202021CDE987
:102BA00000014FF6FF734222C82102904C20FEF72D
:102BB0001BF9002020214FF6FF720346CDE90021CA
:102BC00002902E22C8216420FEF70EF90020202159
:102BD0004FF6FF720346CDE9002102904322C8213F
:102BE0008220FEF701F9002020214FF6FF720346F4
:102BF00000E008E0CDE9002102904422C821B8207D
:102C0000FEF7F2F881E0002020214FF6FF72034624
:102C1000CDE9002102904122C8211620FEF7E4F8F8
:102C2000002020214FF6FF720346CDE900210290DB
:102C30004222C8214C20FEF7D7F8002020214FF671
:102C4000FF720346CDE9002102902E22C8216420A4
:102C5000FEF7CAF800202021CDE900014FF6FF73EE
:102C60004322C82102908220FEF7BEF800202021D6
:102C70004FF6FF720346CDE9002102904422C8219D
:102C8000B820FEF7B1F840E0002020214FF6FF7297
:102C90000346CDE9002102904122C8211620FEF70B
:102CA000A3F8002020214FF6FF720346CDE9002152
:102CB00002904222C8214C20FEF796F800202021E5
:102CC0004FF6FF720346CDE9002102902E22C82163
:102CD0006420FEF789F8002020214FF6FF7203469A
:102CE000CDE9002102904322C8218220FEF77CF822
:102CF00000202021CDE900014FF6FF734422C821B6
:102D00000290B820FEF770F800BF00BF114840786D
:102D100068B1114903C9114A03C200200090019013
:102D20000E4801210CC8504600F01AF809E0094885
:102D3000807810B90748C07818B1084903C9064A15
:102D400003C2BDE8FE8F000062030020660300207E
:102D50002C000020F4030020500300205803002022
:102D60002DE9F05F04460D4616461F46DDE90A8947
:102D70004FF0000A4FF0040B0D203D490870102061
:102D8000487008468470C570012D23D10120FEF7DC
:102D900069FE32463B463649491D481E00F0C2F8DE
:102DA00042463349C91D481EFFF7FEFB4A463049DB
:102DB0000931481EFFF7F8FB2D48FEF713FF2028C6
:102DC00053D12C48006808B9012000E000202949AF
:102DD00008604AE02848007810B90120FEF742FE5A
:102DE0002548007890B92248FEF7FCFE20280DD136
:102DF0002048006808B9012000E000201D49086053
:102E00000020FEF72FFE01201B4908701A480078A9
:102E100058B31A48FEF7C8FE38B30D20144908709D
:102E200010204870084684700020C87032463B4627
:102E3000491D481E00F076F842460D49C91D481E3E
:102E4000FFF7B2FB4A460A490931481EFFF7ACFBBF
:102E50000848001D006808B9012000E0002005496D
:102E6000091D0860002004490870BDE8F09F0000BB
:102E700018080020908121427803002038080020A3
:102E800000BF011EA0F10100FBD1704710B56FF02B
:102E90000400FFF771F80A480068C0080949B0FB50
:102EA000F1F0094908800846008800EB4001C1EBB9
:102EB000C0104FF6FF7101EAC0000449088010BD40
:102EC0007C03002040420F00060000200800002084
:102ED000014609B9002070471148008848434FF067
:102EE000E0235861002098611846006940F0010015
:102EF000186100BF4FF0E020026902F0010018B134
:102F000002F480300028F5D04FF0E020006920F076
:102F100001004FF0E02318610020986100BFDAE75C
:102F2000080000202DE9FC5F82468B4614461D46B2
:102F30002046294601F04CF88AF800009AF8000073
:102F400001F08AF8064622462B4601F009FA80462F
:102F50000022054B01F0D0F8CDE9000101F038F86E
:102F60008BF80000BDE8FC9F0000594008B5F3490C
:102F7000097801EB4101F24A02EB81018868F1A175
:102F8000FDF742F900287CD0EC49097801EB4101BA
:102F9000EB4A02EB81018868ECA1FDF735F90028C6
:102FA000F1D0EC488078012809D0EB48008840F641
:102FB000E441884203DCE9480088884231DDE84882
:102FC000008840F6B83188422BDCE5480088B0F52F
:102FD000966F26DBE3480088884222DCE1480088BF
:102FE000B0F5966F1DDBE0480078D0B9D348007883
:102FF00000EB4000D24901EB8000807800EB4000FC
:1030000011F82000CD4908704FF6FF709823302248
:10301000202100900020FDF7B1FD0120D249087069
:10302000CEE0CC48C078012809D0CB480088B0F564
:10303000617F04DBC9480088B0F5617F33DAC84896
:10304000008840F6B83188422DDCC5480088B0F5CC
:10305000966F28DBC3480088884224DCC14800887A
:10306000B0F5966F1FDBC0480078E0B9B348007830
:1030700000EB4000B24901EB8000C07800EB40005B
:1030800000E0DDE011F82000AC4908704FF6FF7059
:1030900098233022202100900020FDF76FFD0120B1
:1030A000B14908708CE0AB484079012809D0AC48A0
:1030B0000088B0F5617F04DBAA480088B0F5617F25
:1030C0003EDAA548008840F6B831884238DCA2488C
:1030D0000088B0F5966F33DBA048008888422FDC6B
:1030E0009E480088B0F5966F2ADB9F48007838BB71
:1030F0009248007800EB4000914901EB8000407954
:1031000000EB400011F82000B0B18C48007800EBD3
:10311000400001EB8000407900EB400011F82000F6
:10312000864908704FF6FF704FF48C73F02200212F
:1031300000900846FDF722FD01208B4908703FE012
:1031400084484078012809D08548008840F6E44149
:10315000884203DC83480088884231DD7E4800884D
:1031600040F6B83188422BDC7B480088B0F5966F7A
:1031700026DB7A480088884222DC78480088B0F54F
:10318000966F1DDB78480078D0B96C48007800EB6A
:1031900040006B4901EB8000007900EB400011F822
:1031A0002000664908704FF6FF704FF48C73F022D0
:1031B000002100900846FDF7E1FC01206A490870F3
:1031C00064488078A8BB6348C07890BB6148407968
:1031D00078BB6048407860BB6148008840F6B831F1
:1031E000884226DC5E480088B0F5966F21DB5A489D
:1031F000008888421DDC58480088B0F5966F18DBBF
:1032000058480088884214DC56480088B0F5966F0C
:103210000FDB5248008888420BDC50480088B0F52C
:10322000966F06DB50480078012802D100204E49F5
:1032300008704E4801784148007800F079FB78E04A
:103240003E49097801EB41013D4A02EB8101886862
:103250003EA1FCF7D9FF00BB00F03EFB3D48807863
:1032600058B93C48C07840B93A48407928B93948FB
:10327000407810B937480079C0B301202F49087051
:10328000394908704FF6FF704FF48C73F02200211B
:1032900000900846FDF772FC4BE02848007800EBF0
:1032A0004000274911F82000112802D1FEF7CAFF7B
:1032B00021E02248007800EB4000214901EB80002A
:1032C000407900EB400001EB8000407900EB4000CA
:1032D00001EB8000407900EB400011F8200002284B
:1032E00005D11648007800F0BDF804E021E013484D
:1032F0000078FFF77FF917484079D0B101201A49CB
:1033000008700E48007800EB40000D4901EB80008A
:10331000407900EB400011F82000084908704FF692
:10332000FF704FF48C73F022002100900846FDF7E7
:1033300025FC024800780D49087008BD7103002083
:103340004800002073686F770000000068656C6CAF
:103350006F000000F40300202E0000203200002047
:103360002C00002030000020730300207203002096
:103370000EB500BF00BF00BF4FF4A060FEF764F9B8
:10338000FFF784FDFEF768F8FEF742F8FEF75EFEF1
:10339000FDF732FBFDF7CAF9FEF7FAFA4FF48C732A
:1033A000F02220492048FEF7FBFE1F48FEF740FFB1
:1033B000FDF754FC4FF6FF704FF48C73F0220021A0
:1033C00000900846FDF7DAFBFEF78AFC60B10020AA
:1033D00018214FF6FF720346CDE90021029013A297
:1033E0000146FDF79DFE0BE0002018214FF6FF720D
:1033F0000346CDE90021029010A20146FDF790FEA0
:103400000120FEF72FFB0CE00F480078012806D1C1
:1034100000200D490870FEF7C5F9FCF781FFFFF7A2
:10342000A5FDF1E75D0B0008900300202020455228
:10343000524F5220322E3447000000002020322EFE
:1034400034472059455300000200002010B50246C1
:10345000012000E050430B1EA1F10104E1B2F9D1BB
:1034600010BD00002DE9FE4F814600240020009091
:1034700002460346014601904846FFF771FCFD48AD
:10348000008840F6AC51884203DCFB480088884243
:1034900005DDFA480078401CF849087012E0F5484C
:1034A0000088B0F52F7F04DBF3480088B0F52F7F4C
:1034B00005DAF2480078401EF049087002E00A2060
:1034C000EE490870ED48007814280CDB0F20EB491A
:1034D0000870EB480078042814DAE9480078401CAA
:1034E000E74908700EE0E548007858B90520E3493F
:1034F0000870E3480078012804DDE1480078401EA8
:10350000DF490870DF48008840F6AC51884203DC90
:10351000DD480088884205DDDC480078401CDB4936
:10352000087012E0D7480088B0F52F7F04DBD6483A
:103530000088B0F52F7F05DAD4480078401ED349C3
:10354000087002E00A20D1490870D0480078142899
:1035500048DB0F20CD49087000224FF08043CC4952
:1035600003C900F0C9FD07460022CA4B00F0C4FDA4
:1035700005460022C84B00F0F3FE824600F028FD0D
:1035800080B200224FF08043C149029003C900F08D
:10359000B3FD82460022BF4B00F0AEFD074600227D
:1035A000BD4B00F0DDFE054600F012FD80B201903B
:1035B0004FF6FF700090F0220020DDE90113FDF7C7
:1035C0007CFA00224FF08043B14903C900F058FD56
:1035D00052D2B24AB24BAE4903C900F0B1FAAC4A7A
:1035E00003C249E0A9480078002845D10520A74931
:1035F000087000228307A64903C900F07DFD074635
:103600000022A44B00F078FD05460022A24B00F0FA
:10361000A7FE824600F0DCFC80B200224FF080431F
:103620009B49029003C900F067FD07460022994BB1
:1036300000F062FD82460022974B00F091FE0546A5
:1036400000F0C6FC80B201904FF6FF700090F022AF
:103650000020DDE90113FDF730FA904A914B8C49C7
:1036600003C900F047FE07D28C4A8D4B884903C935
:1036700000F068FF864A03C200241BE000208A494C
:1036800021F81400084630F81400884921F8140085
:10369000002187487E4AC2E900100120784908705D
:1036A000601C84B20022824B824903C900F048FAB0
:1036B000804A03C2F02C07DC7F4800780028DDD068
:1036C0007E4800784845D9D101207B490870002404
:1036D0001BE0754830F81400744921F8140068485C
:1036E000007894FBF0F100FB114040B96448007889
:1036F00020446D4931F8100021F8140003E0002047
:10370000694921F81400601C84B2F02C03DA6A487D
:1037100000780028DDD10022694B664903C900F01A
:10372000E9FD03D80021634A116051600022604B1B
:10373000604903C900F004FA5E4A03C20020009009
:1037400002460346014601904846FFF709FB5D48E3
:1037500000780D281BD15B484078102817D15949B3
:10376000C979584A927902EBC20303EB021201EBCA
:10377000820000F05AFC074645480CC8384600F065
:10378000BBFC054600F024FC4749A1F8E00146488F
:10379000B0F8E001A02803DDA0204349A1F8E00132
:1037A000464880F80090002020214FF6FF7248F232
:1037B0001F43CDE90021029043A2AA210A20FDF770
:1037C000AFFC334903C900F089F9054620204FF6C4
:1037D000FF7148F21F420323CDE9002102902A46DF
:1037E000AA215A20FDF7A8FB002020214FF6FF72E6
:1037F00048F21F43CDE90021029035A2CA210A20D8
:10380000FDF78EFC1E48007800F0A6FF054620203C
:103810004FF6FF7148F21F420323CDE900210290C9
:103820002A46CA215A20FDF787FB0020A023F02258
:1038300019460090FDF741F9002417E01B4830F8C5
:103840001400C0F1A00001B24FF6FF7220B2FDF7E4
:1038500085F9154830F81400C0F1A00001B24FF608
:103860001F0220B2FDF77AF9601C84B2F02CE5DB70
:10387000BDE8FE8F2C00002030000020480300200F
:103880004C0300202E0000203200002049030020BD
:103890004003002000004440000064409A99999938
:1038A0009999B93F9999D93F5404002036060020D0
:1038B0000000F03F380300204A0300204B030020A3
:1038C00000006E4038080020486967683A00000030
:1038D000576964653A0000000EB50E480078C0B91B
:1038E0000D48D623A0221E2100902820FDF7C2FB00
:1038F000002018214FF6FF724FF47843CDE90021E4
:10390000029006A2F4211220FDF70AFC01200149D1
:1039100008700EBD300300204C8A00086372656198
:10392000746564206279207368656E6C65000000C0
:103930002DE9FE4304460E460027B84604EB44003A
:103940004E4901EB8000407900EB400001EB800024
:103950000079201A00F0FF0804EB440001EB80001E
:10396000407900EB400011F82000C8B144480078CD
:10397000B0B9002020214FF6FF72CDE9002102905E
:1039800004EB44003D4901EB8000407900EB40002E
:1039900001EB80000023194682680820FDF7C0FB78
:1039A00004EB4401354A02EB8101886835A1FCF73C
:1039B0002BFC88B1002018214FF6FF72CDE90021C1
:1039C000029008EB4800C00000F120014FF478435A
:1039D0002EA20C20FDF7A4FB04EB4400274901EBC9
:1039E0008000407900EB400001EB8000007900EBA3
:1039F000400011F820502BE0002018214FF6FF72F4
:103A0000CDE90021029005EB45001C4B03EB800043
:103A1000826807EB4700C00000F120014FF47843B3
:103A20003020FDF77DFB05EB4500144901EB8000DC
:103A3000C07805EB4501114A12F82110884203DCD9
:103A400001200F49087011E0781CC7B2681CC5B28C
:103A50000B48007850B904EB4401084A02EB81019D
:103A6000886808A1FCF7D0FB0028C5D100BFB4428C
:103A700002D0002002490870BDE8FE834800002003
:103A80007003002073686F77000000003D3E000067
:103A90002DE9F04106460F4600F06EFC041E0D466F
:103AA00018BF0120284320F00040C0F17F6000F1E2
:103AB000E040C00F0ED0301C18BF0120384320F06A
:103AC0000040C0F17F6000F1E040C00F04BF012062
:103AD000FCF7E2FB20462946BDE8F08121F00042D8
:103AE000A2F16052B2F5801F01F0004328BFD2F16D
:103AF0007F6C0BD95FEA001C43EAC20242EB5070B4
:103B000018BF704728BF20F001007047B2F5801F32
:103B1000BCBF184670474FEA410C1CF5001F02D28B
:103B2000084600F0F4BE70B500F090FB000000897C
:103B3000FFF7F6BF4FF00040A0F58000704700008F
:103B400010B591EA030F48BF83F0004300F10285EE
:103B5000841A71EB030C05D2121943EB0C03001B02
:103B600061EB0C01DFF824E14FEA1154A4EB135C84
:103B70001EEA430F18BF9EEA445F73D023EA0E0388
:103B8000DCF1200E21EA045143F4801332D322FAEF
:103B90000CFE10EB0E0023FA0CFE41EB0E01CCF1F3
:103BA000200E03FA0EFE10EB0E0051F10001B1F5EC
:103BB000801FCCF1200E32D201EB045112FA0EF22A
:103BC000BDE8104058BF7047401C38BF5FEA420252
:103BD00018BF7047002814BF20F0010041F1000118
:103BE0004FEA410313F5001F38BF7047A1F1C041F0
:103BF00000F07ABB012A43EB0302ACF1200CDCF1AC
:103C00001F0E32BF4FF0000E23FA0CF310EB03002F
:103C100041EB0451B4EB115FD0D0A1EB045101F59D
:103C2000801149085FEA300001EB04510ED350F1D6
:103C3000000038BF12FA0EFE08D1BDE81040C9E7F7
:103C4000401C38BF5FEA4202CAD1C3E7BDE810405A
:103C50004FEA410313F5001F38BF7047A1F1C0417F
:103C600000F042BB9EEA445F08D011EA5E0FBDE857
:103C7000104004BF01F0004100207047BDE8104033
:103C800070B500F0E3FA00BF64FBBE3E0000E0FF49
:103C9000491058BFC1F140415B1058BFC3F14043C8
:103CA0008B42EFF3008070472DE9C04130B4DFF85C
:103CB000A0C23CEA111418BF3CEA131400F0EC80D7
:103CC00081EA03051CEA111444EAD57418BF1CEA02
:103CD000131500F0C780A4EB05044FF0004545EA3A
:103CE000C12145EAC32341EA505143EA525304F14A
:103CF0007F74994204F500344FEAC0204FEAC22293
:103D000008BF904200F09C804FEA13650FF2401606
:103D1000765D4FEA134506FB05F7C7F1807706FB92
:103D200007F74FEAD737A7FB03687642C8F5803814
:103D3000A7FB06CE38BFA8F1010807FB08E64FF045
:103D4000000EA6FB028CE6FB03CEDCF1000CCEF1EC
:103D5000004E38BFAEF1010EA6FB0C584FF0000725
:103D60004FF00005E6FB0E87A1FB08C6A0FB07CEBF
:103D700016EB0E0645F10005E1FB076515F1E04E77
:103D80007EBFA4F580345FEA46066D4116F18007D8
:103D900045F100054FEA17274FEA066647EA05672F
:103DA000A6F1DE46B6F1805F4FEA15251FD93846E9
:103DB00024F0010C05EBC471BCF1FE6F01EB0C119A
:103DC00002D8F0BCBDE8008124425CBF01F5801E32
:103DD0009EEAC47F02D4F0BCBDE80081244238D4FE
:103DE000F0BCA1F1C041BDE8004100F07DBA4FEA4E
:103DF000D22242EA43524FEAD323A7FB02864FEA7C
:103E0000D02040EA415007FB03661EEA0E0F4FEA3E
:103E1000D12105FB026658BFA6EB0056B6EB005653
:103E20004FEA520E4EEAC37E18EB0E0E56EB530EBF
:103E3000BDD518EB02085E417F1C55F10005B6E7C1
:103E40004FF480154FF000074FF000064FF00008C8
:103E5000ADE7F0BC4FF0000001F1C04101F00041BE
:103E6000BDE8008111EA0C1F0CEA131500D00CE02C
:103E700013EA0C1F00F025804FF00000F0BC81EA2F
:103E8000030101F00041BDE80081F0BCBDE8004144
:103E900081EA030100F028BAF0BCBDE8004170B52A
:103EA00000F0D4F9097EFC3E00F007B881EA030176
:103EB0004FF0000001F00041704781EA030100F07B
:103EC00013BAF0BCBDE800414FF000002149704733
:103ED000FFFDFBF9F7F5F4F2F0EEEDEBE9E8E6E4CF
:103EE000E3E1E0DEDDDBDAD8D7D5D4D3D1D0CFCD56
:103EF000CCCBCAC8C7C6C5C4C2C1C0BFBEBDBCBB8F
:103F0000BAB9B8B7B6B5B4B3B2B1B0AFAEADACAB89
:103F1000AAA9A8A8A7A6A5A4A3A3A2A1A09F9F9E63
:103F20009D9C9C9B9A999998979796959594939315
:103F3000929191908F8F8E8E8D8C8C8B8B8A8989AC
:103F4000888887878685858484838382828181802F
:103F50000000FF070000F87F51EA030C17D41CF59E
:103F6000801F58BFBCF5801F00F10680994218BF22
:103F7000704708BF9042704707D711F5801F58BFA0
:103F800013F5801F19D499427047894270471CF578
:103F9000801F08D5BCF5801FF7D58B4218BF70472E
:103FA00008BF824270474FF4001C1CEB410F38BF22
:103FB0001CEB430F01D28B42704770B500F046F9FD
:103FC000922449004FF000514FF08053FFF760BE3C
:103FD0004FEA1153A3F58063D3F11E03A8BFD3F1B9
:103FE000200C08DB4FF0004242EAC12252EA505254
:103FF00032FA03F0704709420BD4102BC4BF0020E3
:10400000704703F5787CBCF1FF3F05D04FF0FF30DF
:1040100070474FF00000704770B500F017F900BF0F
:104020004992248000207047F0E710F0004248BF1A
:104030004042B0FA80F310FA03F10AD0C3F11D0335
:1040400003F580634FEA415002EB035202EBD121AA
:1040500070474FF000007047B0FA80F310FA03F198
:104060000AD0C3F11D0303F580634FEA41504FEAC4
:10407000035202EBD12170474FF00000704700005F
:1040800051EA030C17D41CF5801F58BFBCF5801FE4
:1040900000F10680994218BF704708BF90427047F0
:1040A00007D711F5801F58BF13F5801F19D4994207
:1040B0007047894270471CF5801F08D5BCF5801FEA
:1040C000F7D58B4218BF704708BF824270474FF444
:1040D000001C1CEB410F38BF1CEB430F01D28B427D
:1040E000704770B500F0B2F8922449004FF00051CB
:1040F0004FF08053FFF7CCBDDFF848C170B51CEA24
:10410000111E1EBF1CEA13159EEA0C0F95EA0C0F38
:1041100000F06F8081EA030423EA4C134EEAD47E58
:1041200021EA4C1141F4801143F48013AE44A1FB09
:10413000024CA0FB0365AEF17F7E361955EB0C05F2
:10414000A1FB034C4CF10003A0FB021C16EB0C0678
:10415000654153F10003094218BF46F0010613F40C
:10416000007F0BD14FEA03314FEA0530340341EAB7
:10417000155140EA16506FF003020AE04FEAC321DE
:104180004FEAC520F40241EA555140EA56506FF01B
:10419000020202EB2E4201EB025585EACE710AD0F3
:1041A0005FEA440C18BF24F0004450F1000041F1D4
:1041B000000120EAD47040F2FE7C624500D270BD5E
:1041C000A84214BF4FF080444FF04044002E08BF77
:1041D0000024BEF1806FA8BFA1F1C041BDE87040CE
:1041E00080F282804FF0000001F1C04101F00041F7
:1041F00070479EEA0C0F0CEA131518BF95EA0C0FD6
:1042000006D04FF0000081EA030E0EF0004170BDB1
:1042100000F01CF88900013E00F007B800F009B872
:104220004FEA430C5FEA5C5C08D081EA030100F0CE
:104230005BB84FEA410C5FEA5C5CF6D14FF00000DE
:10424000014970470000FF070000F87F0EF1020EE1
:104250002EF0030E5EF8046B364205D4012A43EBC0
:10426000030515F5001F12D8012841EB010C1CF5C0
:10427000001F0CD80ED14FEAD17C15F5001F0CEBB6
:104280004C0C0CF1020C08BF4CEBD37C04E04FF05B
:10429000080C01E04FEAD37C0CEB4C0526FA05F63E
:1042A00006F00706B6F1040C06D20EEB860CBDE84C
:1042B00070404CF0010C6047DFE80CF0090B020283
:1042C0004FF000414FF00000A1F5002170BD1946EC
:1042D0001046012851EB010418BFD4F5001484BF27
:1042E000002001F0004170BD0808A0F500114FEA60
:1042F0003101704753EA010C17D41CF5801F58BFD9
:10430000BCF5801F00F106808B4218BF704708BFC4
:104310008242704707D713F5801F58BF11F5801FE1
:1043200019D48B4270479B4270471CF5801F08D5FB
:10433000BCF5801FF7D5994218BF704708BF90425F
:1043400070474FF4001C1CEB430F38BF1CEB410FB0
:1043500001D2994270470FB40CBC03BCFFF7C1BE39
:1043600091EA030F10B581F000413FF5F1AB83F006
:10437000004300F0EFB800002DE9F04101F5801C8A
:10438000BCF5001FC0F2C3804FEA115C21EA0C515A
:104390000CF1FD0C41F480115FEA5C0C0CF5C07C63
:1043A00001D3400049413DA4890241EA905187026E
:1043B0008E0E0A0CA45D04FB04F602FB06F6C6F1A1
:1043C0004046A4FB0662F60D46EA422606FB06F4CA
:1043D000A4FB01235242C3F1404338BF5B1EA6FB3E
:1043E00002420024E6FB0324D20B42EA4446A6FB29
:1043F0000623A1FB02E2A3FB07E4A4184FF000028E
:1044000052F10002E3FB01426442C2F1404E38BF68
:10441000AEF1010EA6FB04234FF00002E6FB0E32C4
:10442000A2FB03464FF00004B61954F10004E2FB6E
:104430000264A1FB06E6A4FB07E816EB08064FF0B2
:10444000000858F10008E4FB01687642C8F14058C2
:1044500038BFA8F10108A2FB06E4A3FB08E52D196B
:104460004FF0000454F10004E2FB0854A1FB05E600
:10447000A7FB04E818EB06084FF0000656F100060B
:10448000E1FB048618F1200556F10006A809A8F101
:104490001B08B10908F03F08B8F10A0F40EA86602E
:1044A0001CD901EB0C51BDE8F08100BFFCF5EEE832
:1044B000E2DDD8D3CFCBC7C3C0BDB9B6B4B1AEACC3
:1044C000A9A7A5A3A19F9D9B9A9896959392908F3B
:1044D0008D8C8B898887868584838281A0FB006888
:1044E00000FB01F208EB4208B8EB872807D5341827
:1044F00058EB0104D5D5401C51F10001D1E7341A25
:1045000078EB0104CDD4401E71F10001C9E75FEAE8
:104510004C0C5FEA9C5C0DD105D34FF0000001F01C
:104520000041BDE8F081BDE8F04170B5FFF78EFEB7
:104530006DDBFFBEBDE8F0414FF000000049704761
:104540000000F87F10B591EA030F48BF83F00043E5
:104550003FF5FEAA841A71EB030C07D212198CF0F6
:10456000004C43EB0C03001B61EB0C01DFF8A4E1F2
:104570004FEA1154A4EB135C1EEA430F18BF9EEAE6
:10458000445F00F0B08023EA6E03524221EA0451F6
:10459000C3EB6E0338BF5B1EDCF1200E25D322FA7D
:1045A0000CFE10EB0E0043FA0CFE41EB0E01CCF1B9
:1045B000200E03FA0EFE10EB0E0051F10001CCF1BB
:1045C000200E29D412FA0EF201EB0451BDE810407E
:1045D00058BF7047401C1CBFB2F1004F7047002805
:1045E0000CBF491C20F00100704712EB020E43EB98
:1045F000030218BF4FF0010E4EEA4202ACF1200C4C
:10460000DCF11E0E54D943FA0CFE10EB0E0051F1F2
:10461000FF31CCF11E0ED5D50EF1010E12FA0EFEB1
:10462000404141EB010101EB445C5FEA5C5C10D965
:1046300010EBDE7001EB045138BFBEF1004FBDE856
:10464000104018BF704700280CBF491C20F0010023
:10465000704730D24FEAD42C11F5001124F40064D5
:104660001BD0B1FA81F20B3AA41AA41ED2F1200396
:10467000914030FA03F31943904001EBCC71002CC8
:1046800001EB0451BDE81040A8BF704701F1C041E3
:104690004FF0000001F000417047B0FA80F310FACB
:1046A00003F100D110BDE41A173C4805C90AE4E73C
:1046B00001EB045110BD491001EB0451BDE810405D
:1046C0004FEA300002E04FF0000170474A0008BF97
:1046D0000042F8D0B2F5001F28BF704701F000413A
:1046E0004FF0000070479EEA445F07D011EA5E0F6A
:1046F000BDE8104004BF002100207047BDE8104015
:1047000070B5FFF7A3FD00BF40DFF63E83F0004128
:10471000104670470000E0FFC10DD1F19E0206DB9C
:104720004FEA002343F0004323FA02F070470042AF
:1047300007D54FEA4001B1F1FE4F02D24FF0000021
:10474000704710B500F09DF8499224800020704712
:104750006FEA200070470000B0FA80F310FA03F20D
:10476000C3F19D030AD0D90501EB1220530638BFCF
:10477000704700F1010008BF20F001007047000001
:104780004FF47F0C1CEAD0121EBF1CEAD11392EA30
:104790000C0F93EA0C0F00F0478090EA010F48BF1E
:1047A00042F480724FF0004C4CEA00204CEA0121A8
:1047B00002EB0302A0FB0113A2F50002002918BFBF
:1047C00043F001035B0028BF4FEA330342EB224270
:1047D0005FEA132C4CEBC2502EBFBCEB436FB2F51B
:1047E0007C0F70474FEA036CBCF1004F08BF20F00C
:1047F0000100B2F57C0F38BF70470BD582F0FF0285
:1048000012F5803FC8BF704700F1C040D8BF00F02C
:104810000040704700F5000C5FEA4C0C48BF704741
:10482000B0F1C04000F073B890EA010F0CEAD11368
:1048300048BF42F48072624538BF634504D280EAC3
:10484000010000F00040704710B500F01AF800BFFA
:104850008900013E00F007B800F009B85FEA410C9A
:104860005FEA1C6C08D080EA010000F050B85FEAF3
:10487000400C5FEA1C6CF6D14FF00040A0F58000C0
:1048800070470EF1020E2EF0030E5EF8044B244228
:1048900004D44FEA4102B2F17F4F11D84FEA4003EE
:1048A000B3F17F4F0CD80ED14FEAD07CB2F17F4FDD
:1048B0000CEB4C0C0CF1020C08BF4CEBD17C04E06F
:1048C0004FF0080C01E04FEAD17C0CEB4C0324FACA
:1048D00003F404F00704B4F1040C06D20EEB840CCC
:1048E000BDE810404CF0010C6047DFE80CF0070811
:1048F00002024FF00040A0F5800010BD08464200C3
:1049000018BFD2F1807288BF00F0004010BDFF21B7
:1049100041EAD050C00570470000000000000000D0
:10492000002F000000000700070000147F147F1410
:1049300000242A7F2A120062640813230036495596
:10494000225000000503000000001C22410000006E
:1049500041221C000014083E08140008083E080804
:10496000000000A06000000808080808000060605F
:104970000000002010080402003E5149453E00009E
:10498000427F4000004261514946002141454B3180
:10499000001814127F10002745454539003C4A494C
:1049A00049300001710905030036494949360006BE
:1049B0004949291E00003636000000005636000026
:1049C00000081422410000141414141400004122A1
:1049D000140800020151090600324959513E007C79
:1049E0001211127C007F49494936003E4141412263
:1049F000007F4141221C007F49494941007F09094C
:104A00000901003E4149497A007F0808087F0000FB
:104A1000417F4100002040413F01007F08142241B6
:104A2000007F40404040007F020C027F007F04086E
:104A3000107F003E4141413E007F09090906003ECA
:104A40004151215E007F09192946004649494931F3
:104A50000001017F0101003F4040403F001F204016
:104A6000201F003F4038403F0063140814630007D4
:104A70000870080700615149454300007F4141002B
:104A800000552A552A55000041417F0000040201CB
:104A900002040040404040400000010204000020A9
:104AA00054545478007F48444438003844444420E7
:104AB00000384444487F00385454541800087E0994
:104AC00001020018A4A4A47C007F0804047800005C
:104AD000447D4000004080847D00007F1028440019
:104AE0000000417F4000007C04180478007C08042A
:104AF000047800384444443800FC24242418001866
:104B0000242418FC007C0804040800485454542051
:104B100000043F444020003C4040207C001C2040DA
:104B2000201C003C4030403C004428102844001C1D
:104B3000A0A0A07C004464544C4414141414141415
:104B40000000000000000000000000000000000065
:104B5000000000F8000000000000003330000000FA
:104B600000100C06100C0600000000000000000001
:104B700040C07840C0784000043F04043F04040073
:104B8000007088FC08300000001820FF211E000083
:104B9000F008F000E018000000211C031E211E0098
:104BA00000F00888700000001E212324192721101E
:104BB00010160E00000000000000000000000000C1
:104BC000000000E018040200000000071820400068
:104BD00000020418E0000000004020180700000058
:104BE000404080F0804040000202010F01020200BC
:104BF000000000F0000000000101011F01010100A0
:104C0000000000000000000080B070000000000004
:104C1000000000000000000000010101010101018D
:104C20000000000000000000003030000000000024
:104C300000000000806018040060180601000000F9
:104C400000E010080810E000000F102020100F00F6
:104C5000001010F8000000000020203F202000007D
:104C600000700808088870000030282422213000D5
:104C700000300888884830000018202020110E00DD
:104C80000000C02010F8000000070424243F240086
:104C900000F80888880808000019212020110E005B
:104CA00000E0108888180000000F112020110E006D
:104CB00000380808C83808000000003F0000000065
:104CC0000070880808887000001C222121221C0026
:104CD00000E010080810E0000000312222110F004F
:104CE000000000C0C00000000000003030000000E4
:104CF0000000008000000000000080600000000054
:104D0000000080402010080000010204081020006C
:104D100040404040404040000404040404040400B7
:104D2000000810204080000000201008040201004C
:104D3000007048080808F00000000030360100004C
:104D4000C030C828E810E0000718272423140B00FF
:104D50000000C038E0000000203C23020227382079
:104D600008F8888888700000203F202020110E005D
:104D7000C030080808083800071820202010080054
:104D800008F808080810E000203F202020100F003D
:104D900008F88888E8081000203F20202320180009
:104DA00008F88888E8081000203F20000300000071
:104DB000C03008080838000007182020221E020012
:104DC00008F808000008F808203F210101213F20D1
:104DD000000808F8080800000020203F20200000FC
:104DE00000000808F8080800C08080807F000000EC
:104DF00008F888C028180800203F20012638200025
:104E000008F8080000000000203F2020202030008B
:104E100008F8F800F8F80800203F003F003F2000A5
:104E200008F830C00008F808203F200007183F00AD
:104E3000E01008080810E0000F10202020100F00DC
:104E400008F808080808F000203F210101010000CF
:104E5000E01008080810E0000F18242438504F0014
:104E600008F8888888887000203F2000030C3020D4
:104E700000708808080838000038202121221C0012
:104E8000180808F8080818000000203F200000005B
:104E900008F808000008F808001F202020201F0044
:104EA0000878880000C83808000007380E010000A4
:104EB000F80800F80008F800033C0700073C03006E
:104EC000081868808068180820302C03032C3020D4
:104ED0000838C800C83808000000203F2000000043
:104EE00010080808C838080020382621202018009B
:104EF000000000FE020202000000007F404040006F
:104F0000000C30C000000000000000010638C000A6
:104F100000020202FE000000004040407F0000004E
:104F20000000040202020400000000000000000073
:104F30000000000000000000808080808080808071
:104F40000002020400000000000000000000000059
:104F500000008080808000000019242222223F204F
:104F600008F8008080000000003F112020110E0092
:104F70000000008080800000000E11202020110021
:104F8000000000808088F800000E112020103F20D3
:104F90000000808080800000001F22222222130057
:104FA000008080F0888888180020203F20200000A2
:104FB0000000808080808000006B94949493600057
:104FC00008F8008080800000203F210000203F2062
:104FD00000809898000000000020203F2020000062
:104FE000000000809898000000C08080807F000052
:104FF00008F8000080808000203F24022D3020002F
:10500000000808F8000000000020203F20200000D9
:105010008080808080808000203F20003F20003FF3
:105020008080008080800000203F210000203F2001
:105030000000808080800000001F202020201F00B2
:10504000808000808000000080FFA12020110E00E1
:105050000000008080808000000E112020A0FF80D2
:10506000808080008080800020203F21200001007F
:1050700000008080808080000033242424241900D4
:10508000008080E0808000000000001F20200000E1
:105090008080000000808000001F202020103F2022
:1050A000808080000080808000010E3008060100B2
:1050B00080800080008080800F300C030C300F0057
:1050C00000808000808080000020312E0E31200082
:1050D000808080000080808080818E7018060100B2
:1050E00000808080808080000021302C22213000D0
:1050F00000000000807C020200000000003F4040F1
:1051000000000000FF00000000000000FF000000A1
:105110000002027C800000000040403F00000000D0
:10512000000601010202040400000000000000006B
:105130000000000000000000000000000000040467
:10514000040404000004000014140A00000000001D
:105150000000000000000A0A1F0A0A1F0A0A0000D5
:1051600000040E1505060C14150E0400000012159F
:105170000D152E2C2A1200000000040A0A361515FF
:1051800029160000020201000000000000000000DB
:1051900010080804040404040808100002040408A9
:1051A000080808080404020000000004150E0E158B
:1051B0000400000000000008083E0808000000008D
:1051C00000000000000000000202010000000000DA
:1051D000003F000000000000000000000000000090
:1051E0000002000000201010080804040202010060
:1051F00000000E1111111111110E00000000040623
:1052000004040404040E000000000E11110804023E
:10521000011F000000000E11100C1010110E0000F4
:105220000000080C0C0A091F081C000000001F01E8
:10523000010F1110110E000000000C12010D1311CE
:10524000110E000000001E100808040404040000F1
:1052500000000E11110E1111110E000000000E11B0
:1052600011191610090600000000000004000000DB
:10527000000400000000000000040000000404001E
:1052800000001008040202040810000000000000E2
:105290003F003F000000000000000204081010085A
:1052A0000402000000000E111108040400040000B4
:1052B00000001C22292D2D1D221C000000000404CA
:1052C0000C0A0A1E1233000000000F12120E1212F6
:1052D000120F000000001E1101010101110E00005B
:1052E00000000F1212121212120F000000001F1203
:1052F0000A0E0A02121F000000001F120A0E0A0204
:105300000207000000001C1201013911120C0000FC
:1053100000003312121E12121233000000001F048C
:1053200004040404041F000000003E0808080808E4
:1053300008080907000037120A060A12123700008F
:105340000000070202020202223F000000003B1B95
:105350001B1B15151535000000003B1216161A1AF6
:105360001217000000000E1111111111110E000092
:1053700000000F12120E02020207000000000E11C0
:1053800011111117190E180000000F12120E0A1237
:105390001237000000001E1101060810110F000056
:1053A00000001F1504040404040E00000000331262
:1053B00012121212120C000000003312120A0A0C10
:1053C000040400000000151515150E0A0A0A000055
:1053D00000001B0A0A04040A0A1B000000001B0A42
:1053E0000A0A0404040E000000001F090804040255
:1053F000121F00001C0404040404040404041C0020
:105400000002020404040808081010000E0808082E
:105410000808080808080E00040A00000000000040
:105420000000000000000000000000000000003F3D
:105430000204000000000000000000000000000066
:10544000000C121C123C000000030202020E121299
:10545000120E000000000000001C1202120C0000DE
:1054600000181010101C1212123C00000000000066
:10547000000C121E021C000000182404041E040468
:10548000041E000000000000003C120C021C221C44
:1054900000030202020E1212123700000004040080
:1054A00000060404040E000000080800000C0808B0
:1054B0000808080700030202021A0A060A1300007D
:1054C0000007040404040404041F0000000000009A
:1054D000000F15151515000000000000000F121236
:1054E0001237000000000000000C1212120C000025
:1054F00000000000000F1212120E02070000000050
:10550000001C1212121C103800000000001B0602C2
:105510000207000000000000001E020C101E000028
:1055200000000004041E0404041C0000000000002D
:10553000001B1212123C000000000000001B0A0AAF
:1055400004040000000000000015150E0A0A000007
:1055500000000000001B0A040A1B000000000000FD
:10556000003312120C08040300000000001E08049F
:10557000041E000018080808080C0808080818008D
:1055800008080808080808080808080806040404A9
:1055900004080404040406001609000000000000CA
:1055A00000000000000000000000000000000000FB
:1055B00000000000000000080808080808080000B3
:1055C0001818000000486C241200000000000000C1
:1055D000000000000000002424247F1212127F1219
:1055E000121200000000081C2A2A0A0C1828282A77
:1055F0002A1C080800000022251515152A585454A5
:10560000542200000000000C1212120A7625291103
:10561000916E000000060604030000000000000078
:1056200000000000004020101008080808080810BA
:10563000102040000002040808101010101010087C
:10564000080402000000000008086B1C1C6B08081E
:105650000000000000000000080808087F08080893
:105660000800000000000000000000000000000032
:10567000060604030000000000000000FE00000019
:10568000000000000000000000000000000000001A
:10569000060600000000804040202010100808048A
:1056A00004020200000000182442424242424242E8
:1056B00024180000000000080E0808080808080860
:1056C000083E00000000003C424242202010080436
:1056D000427E00000000003C424220182040404230
:1056E000221C0000000000203028242422227E20DA
:1056F000207800000000007E0202021A264040428C
:10570000221C0000000000382402021A26424242F5
:10571000241800000000007E22221010080808084B
:10572000080800000000003C424242241824424283
:10573000423C0000000000182442424264584040AD
:10574000241C0000000000000000181800000000E9
:105750001818000000000000000000080000000011
:10576000000808040000004020100804020408108B
:10577000204000000000000000007F0000007F00CB
:105780000000000000000002040810204020100863
:10579000040200000000003C42424640201010007D
:1057A000181800000000001C225A555555552D426E
:1057B000221C00000000000808181414243C224297
:1057C00042E700000000001F2222221E2242424225
:1057D000221F00000000007C424201010101014241
:1057E000221C00000000001F22424242424242426C
:1057F000221F00000000003F4212121E121202423D
:10580000423F00000000003F4212121E121202022C
:10581000020700000000003C222201010171212248
:10582000221C0000000000E7424242427E42424207
:1058300042E700000000003E0808080808080808C1
:10584000083E00000000007C101010101010101016
:105850001010110F0000007722120A0E0A121222F5
:105860002277000000000007020202020202020288
:10587000427F000000000077363636362A2A2A2A70
:105880002A6B0000000000E346464A4A5252526228
:10589000624700000000001C22414141414141415A
:1058A000221C00000000003F424242423E0202022F
:1058B000020700000000001C2241414141414D53BC
:1058C000321C60000000003F4242423E121222227F
:1058D00042C700000000007C4242020418204042FF
:1058E000423E00000000007F490808080808080838
:1058F000081C0000000000E742424242424242428D
:10590000423C0000000000E7424222242414141804
:10591000080800000000006B4949494955553622E6
:1059200022220000000000E7422424181818242432
:1059300042E700000000007722221414080808083B
:10594000081C00000000007E212010100804044202
:10595000423F0000007808080808080808080808FE
:10596000080878000000020204040808081010204B
:1059700020204040001E10101010101010101010A9
:1059800010101E000038440000000000000000005D
:105990000000000000000000000000000000000007
:1059A000000000FF000608000000000000000000EA
:1059B00000000000000000000000003C427844426B
:1059C00042FC0000000000030202021A264242428A
:1059D000261A000000000000000000384402020205
:1059E0004438000000000060404040784442424299
:1059F00064D80000000000000000003C427E02026B
:105A0000423C0000000000F08808087E08080808F2
:105A1000083E0000000000000000007C22221C0262
:105A20003C42423C000000030202023A464242422B
:105A300042E700000000000C0C00000E08080808F7
:105A4000083E0000000000303000003820202020F8
:105A50002020221E0000000302020272120A161207
:105A6000227700000000000E08080808080808084F
:105A7000083E0000000000000000007F9292929219
:105A800092B70000000000000000003B4642424286
:105A900042E70000000000000000003C4242424299
:105AA000423C0000000000000000001B2642424271
:105AB000221E02070000000000000078444242421B
:105AC000447840E000000000000000774C0404042B
:105AD000041F0000000000000000007C42023C4067
